:060000000A128A11E72F2D
:1003F0000A128A111D220A128A11831603139114FC
:1004000008000A128A111D220A128A118316031388
:10041000111408000A128A111D220A128A11831669
:100420000313111508000A128A111D220A128A11DB
:100430007008831203139300080083160313141922
:10044000222A232A1D2A11081F39031D282A292A96
:100450001D2A08007E088A007F0882000A128A117D
:100460002A220A128A118000840A04087D060319D0
:100470000034FF0A0319FE0A2E2AF300F201731C4E
:10048000422A432A472A7008F1007108F207031034
:10049000F00D0310F30C7308031D4F2A502A3F2A56
:1004A00072080800F6000F307605F4000A30F000FC
:1004B0007608F50004300310F50CFF3E031D5B2A9F
:1004C00075080A128A113D220A128A11740708005F
:1004D000F30083120313081173080A128A11DD2234
:1004E0000A128A118312031388150B30F20062304E
:1004F000F100F10B792AF20B792A00008312031321
:1005000088110800831603178801890183160313D5
:10051000871007110713871385018601880183124D
:10052000031385018601880187140715703083162F
:1005300003138F040F1408004434413454344534F9
:100540003A342034303430342F34303430342F3493
:1005500032343034303430340034543449344D344F
:1005600045343A342034303430343A343034303452
:100570003A34303430340034F800F601F701D12A2F
:1005800076087807F5007508840000080A128A11B9
:100590008E230A128A110130F6070318F70A003079
:1005A000F70776087807F5007508840083130008BC
:1005B000031DDB2ADC2AC02A0800F000701CE12A97
:1005C000E22AE62A831203130816E92A8312031388
:1005D0000812F01CEC2AED2AEF2A8816F02A88125D
:1005E000701DF32AF42AF62A0817F72A0813F01DBB
:1005F000FA2AFB2AFD2A8817FE2A881308000A1205
:100600008A111D220A128A118316031391150A12E8
:100610008A111D220A128A11831203131308F20091
:10062000F3017208F4007308F5000A128A111D2202
:100630000A128A1170037104031D1F2B202B242B17
:10064000831603139112272B831603139116111689
:100650007508F1007408F000080083120313C0004D
:100660000A30F0000030F1004008F900FA01790882
:10067000F2007A08F3000A128A1125250A128A115B
:100680007008FB0004300310FB0DFF3E031D432BDD
:100690000A30F0000030F100831203134008FC0020
:1006A000FD017C08F2007D08F3000A128A1109247A
:1006B0000A128A1170087B0708002830831203137E
:1006C00094004008C4004108C5004208C600430821
:1006D000C70002300310C40DC50DC60DC70DFF3E87
:1006E000031D6A2B4708F3004608F2004508F10095
:1006F0004408F0000030F7007A30F6001230F500C0
:100700000030F4000A128A11BF240A128A117008FC
:10071000FF3E83160313930094010800F40074084D
:100720000F39F2007408F039F3008312031308152F
:100730007308F10004300310F10CFF3E031D9B2BE6
:1007400071080A128A11DD220A128A118312031318
:1007500088151A30F100F10BAB2B00008312031344
:10076000881172080A128A11DD220A128A11831274
:10077000031388151A30F100F10BBC2B0000831213
:10078000031388110800F6007603031DC82BC92B3C
:10079000E62B74087F3EF9007908F5000430031059
:1007A000F50CFF3E031DCF2B7508F70079080F39B4
:1007B000F80077080A128A1168220A128A1178084A
:1007C0000A128A1168220A128A11082C023076064F
:1007D000031DEB2BEC2B082C7408BF3EF9007908A5
:1007E000F50004300310F50CFF3E031DF22B7508D5
:1007F000F70079080F39F80077080A128A11682281
:100800000A128A1178080A128A1168220A128A11B9
:100810000800F601F31F0D2C0E2C152CF209F3091C
:10082000F20A0319F30AF601F60AF11F182C192C23
:100830001E2CF009F109F00A0319F10A700871047D
:100840000319232C242C532CF501F50A322C0130EA
:100850000310F00DF10DFF3E031D282C0130F400B4
:100860007408F507F11F352C362C272C71087302FC
:10087000031D3C2C70087202031C3F2C402C462C9C
:100880007008F2027108031CF303F3020130031035
:10089000F10CF00CFF3E031D472C0130F502031D47
:1008A000522C532C362C76080319572C582C5D2CBF
:1008B000F209F309F20A0319F30A7308F100720846
:1008C000F000080000300A128A11DD220A128A1193
:1008D0003430F500F130F400F40B6C2CF50B6C2C7B
:1008E000712C03300A128A1168220A128A110D3003
:1008F000F500FB30F400F40B7B2CF50B7B2C802CEB
:1009000003300A128A1168220A128A111D30F5007A
:100910009130F400F40B8A2CF50B8A2C03300A1268
:100920008A1168220A128A1102300A128A11682278
:100930000A128A1102300A128A1168220A128A11D6
:1009400008300A128A1168220A128A1100300A122B
:100950008A1168220A128A110C300A128A1168223E
:100960000A128A1100300A128A1168220A128A11A8
:1009700006300A128A1168220A128A110800003011
:10098000FC000030FB000030FA000030F900730872
:100990007204710470040319CE2CCF2C1C2DFD01A0
:1009A000FD0ADF2C0130F8000310F00DF10DF20DFF
:1009B000F30DF80BD42C0130F8007808FD07F31F75
:1009C000E22CE32CD22C0130F8000310F90DFA0DC3
:1009D000FB0DFC0DF80BE52C73087702031DFA2CB8
:1009E00072087602031DFA2C71087502031DFA2C99
:1009F00070087402031CFD2CFE2C0D2D7008F402EF
:100A00007108031C710FF5027208031C720FF602C5
:100A10007308031C730FF702791401300310F30CF1
:100A2000F20CF10CF00CFF3E031D0E2D0130FD0207
:100A3000031D1B2D1C2DE32C7C08F3007B08F2000A
:100A40007A08F1007908F0000800F601F11F292D5D
:100A50002A2D312DF009F109F00A0319F10AF601E6
:100A6000F60AF31F342D352D3E2DF209F309F20A53
:100A70000319F30A0130F4007408F606F701F801CF
:100A8000700871040319452D462D7D2DF501F50AD9
:100A9000542D01300310F00DF10DFF3E031D4A2DC2
:100AA0000130F4007408F507F11F572D582D492D1A
:100AB00001300310F70DF80DFF3E031D592D71088D
:100AC0007302031D652D70087202031C682D692DC9
:100AD000702D7008F2027108031CF303F3027714FF
:100AE00001300310F10CF00CFF3E031D712D01309D
:100AF000F502031D7C2D7D2D582D76080319812DBF
:100B0000822D872DF709F809F70A0319F80A7808E2
:100B1000F1007708F00008000A128A1182220A12F6
:100B20008A110A128A1162240A128A110030831271
:100B30000313C3000130C2008630C100A030C000E2
:100B40000A128A115D230A128A1100300A128A11D0
:100B50002D230A128A1183120313CF0000300A12C8
:100B60008A112D230A128A1183120313D0000A124C
:100B70008A1101220A128A11D030F0000030F100EF
:100B80000A128A1113220A128A110130F000003071
:100B9000F1000A128A1113220A128A118312031316
:100BA0004F08C800C9014808F0004908F1000A12BE
:100BB0008A1113220A128A110A128A110A220A12AF
:100BC0008A11033083120313CA000830C90076303B
:100BD000C800C80BE92DC90BE92DCA0BE92D00008F
:100BE0000A128A1101220A128A11D030F000003054
:100BF000F1000A128A1113220A128A110030F00041
:100C0000F1000A128A1113220A128A1183120313A5
:100C10005008C800C9014808F0004908F1000A124C
:100C20008A1113220A128A110A128A110A220A123E
:100C30008A110A128A1101220A128A11D030F00098
:100C40000030F1000A128A1113220A128A110030B0
:100C5000F000F1000A128A1113220A128A110A12F4
:100C60008A110A220A128A110A128A1101220A1210
:100C70008A11D030F0000030F1000A128A111322DC
:100C80000A128A110030F000F1000A128A111322B0
:100C90000A128A110A128A11F8210A128A11D13015
:100CA000F0000030F1000A128A1113220A128A1190
:100CB0000030F000F1000A128A11FF220A128A1194
:100CC000700883120313D0000130F0000030F100EF
:100CD0000A128A1113220A128A110A128A11F821A1
:100CE0000A128A11D130F0000030F1000A128A1184
:100CF00013220A128A110030F000F1000A128A1140
:100D0000FF220A128A11700883120313CF000A12FD
:100D10008A110A220A128A11033083120313CA00AD
:100D20000830C9007630C800C80B942EC90B942E29
:100D3000CA0B942E00000A128A11A4260A128A11E4
:100D4000192E0A128A1100288312031350080A125E
:100D50008A1152220A128A1183120313D0004F08FB
:100D60000A128A1152220A128A1183120313CF0027
:100D70004E080A128A1152220A128A118312031390
:100D8000CE004D080A128A1152220A128A118312C9
:100D90000313CD004C080A128A1152220A128A113A
:100DA00083120313CC004B080A128A1152220A1232
:100DB0008A1183120313CB000A30F0000030F100D7
:100DC0004E08FA00FB017A08F2007B08F3000A12D1
:100DD0008A1125250A128A117008303E83120313E6
:100DE000B7000A30F0000030F1004E08FA00FB01B5
:100DF0007A08F2007B08F3000A128A1109240A1209
:100E00008A117008303E83120313B8000A30F000D4
:100E10000030F1004F08FA00FB017A08F2007B086D
:100E2000F3000A128A1125250A128A117008303E31
:100E300083120313BA000A30F0000030F1004F08AB
:100E4000FA00FB017A08F2007B08F3000A128A110B
:100E500009240A128A117008303E83120313BB0062
:100E60000A30F0000030F1005008FA00FB017A0867
:100E7000F2007B08F3000A128A1125250A128A1152
:100E80007008303E83120313BD000A30F0000030BA
:100E9000F1005008FA00FB017A08F2007B08F30029
:100EA0000A128A1109240A128A117008303E83122C
:100EB0000313BE000A30F0000030F1004D08FA00C4
:100EC000FB017A08F2007B08F3000A128A1125253B
:100ED0000A128A117008303E83120313A6000A30EA
:100EE000F0000030F1004D08FA00FB017A08F20032
:100EF0007B08F3000A128A1109240A128A11700869
:100F0000303E83120313A7000A30F0000030F100D6
:100F10004C08FA00FB017A08F2007B08F3000A1281
:100F20008A1125250A128A117008303E8312031394
:100F3000A9000A30F0000030F1004C08FA00FB0173
:100F40007A08F2007B08F3000A128A1109240A12B7
:100F50008A117008303E83120313AA000A30F00091
:100F60000030F1004B08FA00FB017A08F2007B0820
:100F7000F3000A128A1125250A128A117008303EE0
:100F800083120313AE000A30F0000030F1004B086A
:100F9000FA00FB017A08F2007B08F3000A128A11BA
:100FA00009240A128A117008303E83120313AF001D
:100FB000F401F40A01300A128A11C3230A128A11B9
:100FC00031300A128A11BC220A128A1108008313D6
:100FD0004030FD000230FE009C30FF0020308400D5
:100FE0000A128A112E220A128A11CB01CC01CD01DC
:100FF000CE01CF01D001D10183010A128A118C2DBB
:08400000FF3FFF3FFF3FFF3FC0
:04400E00D520FF3F7B
:00000001FF
