:060000000A128A110C280F
:10000800FE00030EF0000A08F1000A128A114628C1
:100018000A128A110F28F20183010A128A11142880
:100028000A128A1132200A128A11831603138601D2
:100038007203031D20282128252883120313061480
:100048001C2802307206031D2A282B281C2883121C
:10005800031306101C280A128A110C288312031392
:100068001410941014159411941614128316031373
:100078001413941387120716871585168C150B17FA
:100088008B170800831203138C1D4B284C284F280C
:100098001308F2008C1171088A00700E8300FE0E9E
:0400A8007E0E0900BF
:08400000FF3FFF3FFF3FFF3FC0
:04400E00D520FF3F7B
:00000001FF
