:100000000A128A11F72FFF1B0D2883137F188317FD
:100010000008840A0319FF0A080000308A00040857
:10002000840A82070034013400340A340034643412
:100030000034E83403341034273450346F347434CB
:100040003134003450346F34743432340034433437
:0E0050006F346E34743400342534753400344B
:1006C800F0007008831203139300080083160313C5
:1006D800141C6F2B702B6A2B08000A128A116A23CC
:1006E8000A128A11831203131308080000300A1231
:1006F8008A119D230A128A1101300A128A119D2338
:100708000A128A110800F300831603138712731D57
:100718008E2B8F2B932B720894008715972B7008BC
:1007280072049400871173087104831203139400F0
:100738000800F30083120313071373080A128A11BF
:10074800B7230A128A118312031387170B30F2009A
:100758006230F100F10BAE2BF20BAE2B00008312CE
:10076800031387130800F000701CBB2BBC2BC02B95
:10077800831203130816C32B831203130812F01CE9
:10078800C62BC72BC92B8816CA2B8812701DCD2BD8
:10079800CE2BD02B0817D12B0813F01DD42BD52B1B
:1007A800D72B8817D82B88130800831603178801BE
:1007B800890183160313871007110713871385010F
:1007C8008601880183120313850186018801871435
:1007D8000715F001F101F20120300A128A1187236E
:1007E8000A128A117030831603138F040F1408003D
:1007F800F40074080F39F2007408F039F30083121A
:10080800031307177308F10004300310F10CFF3EBF
:10081800031D092C71080A128A11B7230A128A11BA
:100828008312031387171A30F100F10B192C0000FB
:1008380083120313871372080A128A11B7230A1244
:100848008A118312031387171A30F100F10B2A2C2F
:10085800000083120313871308007808790403192A
:10086800362C372C662CFD01FD0A452C013003106F
:10087800F80DF90DFF3E031D3B2C0130FC007C08F0
:10088800FD07F91F482C492C3A2C79087B02031DD7
:100898004F2C78087A02031C522C532C592C7808B8
:1008A800FA027908031CFB03FB0201300310F90C60
:1008B800F80CFF3E031D5A2C0130FD02031D652C68
:1008C800662C492C7B08F9007A08F8000800FA0120
:1008D800FB01902C7A087507F8007608F7000318D2
:1008E800F70AFA1F782CF7037708F90079088312BA
:1008F8000313FF00780884000A128A1103200A12E1
:100908008A110A128A11FC230A128A110130FA0785
:100918000318FB0A0030FB077A087507F800760809
:10092800F7000318F70AFA1F9A2CF7037708F9005B
:10093800790883120313FF00780884000A128A11C9
:1009480003200A128A11003A031DAB2CAC2C6E2C22
:100958000800F501F601700871040319B42CB52CD0
:10096800EC2CF701F70AC32C01300310F00DF10D40
:10097800FF3E031DB92C0130F4007408F707F11F7E
:10098800C62CC72CB82C01300310F50DF60DFF3E10
:10099800031DC82C71087302031DD42C7008720241
:1009A800031CD72CD82CDF2C7008F2027108031C0A
:1009B800F303F302751401300310F10CF00CFF3E41
:1009C800031DE02C0130F702031DEB2CEC2CC72C87
:1009D8007608F1007508F0000800F6007603031D9C
:1009E800F62CF72C142D74087F3EF9007908F500D1
:1009F80004300310F50CFF3E031DFD2C7508F700AD
:100A080079080F39F80077080A128A119D230A120B
:100A18008A1178080A128A119D230A128A11362D22
:100A280002307606031D192D1A2D362D7408BF3E87
:100A3800F9007908F50004300310F50CFF3E031D9A
:100A4800202D7508F70079080F39F80077080A1281
:100A58008A119D230A128A1178080A128A119D2385
:100A68000A128A11080000300A128A11B7230A12E2
:100A78008A113430F500F130F400F40B412DF50BF8
:100A8800412D462D03300A128A119D230A128A111C
:100A98000D30F500FB30F400F40B502DF50B502D04
:100AA800552D03300A128A119D230A128A111D300E
:100AB800F5009130F400F40B5F2DF50B5F2D03303A
:100AC8000A128A119D230A128A1102300A128A1107
:100AD8009D230A128A1102300A128A119D230A12D2
:100AE8008A1108300A128A119D230A128A110030CD
:100AF8000A128A119D230A128A110C300A128A11CD
:100B08009D230A128A1100300A128A119D230A12A3
:100B18008A1106300A128A119D230A128A110800C6
:100B280083120313AB002130A700402E25302C067A
:100B380003199F2DA02DAA2D2B0884002C088313A0
:100B480080000130A3002308AB07402EA601B12D79
:100B5800C030A3002308A604CB2D0130A007FF3026
:100B6800200784000A128A110D200A128A11AC008B
:100B7800A300A4012408003A0319C32D402E23081A
:100B8800003A0319502E753A0319AC2D402E270848
:100B9800840083130008A800840A0008A900023012
:100BA800A3002308A707AC01AC0A2C08A30023075D
:100BB800013E84000A128A110D200A128A11A4002B
:100BC8000A128A110D200A128A11A5002508290285
:100BD800031DF02D240828020318F32DF42DF52DFC
:100BE800FF2D0130A3002308AC0705302C06031D98
:100BF800FE2DFF2DD92D2C08AA00372E0A30F8001B
:100C08000030F9002A08A3002307013E84000A12D5
:100C18008A110D200A128A11F0000A128A110D2079
:100C28000A128A11F1002908F3002808F2000A12B2
:100C38008A11AD240A128A117108FB007008FA00A3
:100C48000A128A1131240A128A117808303E831256
:100C58000313AC002B0884002C0883138000013098
:100C6800A3002308AB07FF30A3002308AA072A0A1A
:100C7800031D3F2E402E022E0130A007FF30200713
:100C880084000A128A110D200A128A11AC002C085D
:100C9800031D4F2E502E9A2D2B088400831380019C
:100CA80008000A128A11D9230A128A110A128A1113
:100CB80037250A128A11831203130711033083128E
:100CC8000313AE009730AD00AD0B682EAE0B682E47
:100CD80000300A128A1164230A128A11033083121F
:100CE8000313AE009730AD00AD0B782EAE0B782E07
:100CF8008312031307150711033083120313AE0081
:100D08009730AD00AD0B862EAE0B862E02308312C7
:100D18000313AF000430AE00B930AD00AD0B922E16
:100D2800AE0B922EAF0B922E992E0A128A117123B6
:100D38000A128A1183120313EC006C088600033030
:100D480083120313AE009730AD00AD0BA92EAE0B86
:100D5800A92E831203130715023083120313AF0061
:100D68000430AE00B930AD00AD0BB82EAE0BB82EC6
:100D7800AF0BB82EBF2E83120313871003308312D4
:100D88000313AE009730AD00AD0BC82EAE0BC82EC6
:100D98000F300A128A1164230A128A110A128A1160
:100DA80071230A128A1183120313ED00871403308A
:100DB80083120313AF008A30AE005530AD00AD0B7F
:100DC800E32EAE0BE32EAF0BE32E831203130711B2
:100DD800033083120313AE009730AD00AD0BF22E33
:100DE800AE0BF22E01300A128A1164230A128A11FC
:100DF800033083120313AF008A30AE005530AD00C4
:100E0800AD0B042FAE0B042FAF0B042F831203136B
:100E18000715823083120313AE00DD30AD00AD0B31
:100E2800132FAE0B132F83120313071103308312F2
:100E38000313AE009730AD00AD0B202FAE0B202F63
:100E48000A128A1171230A128A1183120313EE00FF
:100E5800033083120313AE009730AD00AD0B322F71
:100E6800AE0B322F831203130715033083120313BB
:100E7800AF008A30AE005530AD00AD0B412FAE0B40
:100E8800412FAF0B412F0A128A117A230A128A11B5
:100E9800F401F40A01300A128A11F1240A128A11A3
:100EA8000B30F5008030F6000A128A116B240A1202
:100EB8008A111A3083120313A0006E08AD00AE0128
:100EC8002D08A1002E08A20030300A128A1194259C
:100ED8000A128A11F401F40A02300A128A11F12462
:100EE8000A128A113030F5000030F6000A128A1111
:100EF8006B240A128A110730F40001300A128A1191
:100F0800F1240A128A111030F5008030F6000A1216
:100F18008A116B240A128A111A3083120313A00053
:100F28006D08AD00AE012D08A1002E08A2004430C6
:100F38000A128A1194250A128A110730F400023025
:100F48000A128A11F1240A128A114430F50000307D
:100F5800F6000A128A116B240A128A110D30F40065
:100F680001300A128A11F1240A128A111530F5008B
:100F78008030F6000A128A116B240A128A111A307C
:100F880083120313A0006C08AD00AE012D08A10068
:100F98002E08A20058300A128A1194250A128A11C2
:100FA8000D30F40002300A128A11F1240A128A1153
:100FB8005830F5000030F6000A128A116B240A1224
:100FC8008A11063083120313AF001330AE00AD3020
:100FD800AD00AD0BED2FAE0BED2FAF0BED2F5F2E50
:100FE8000A128A11002883120313EC01ED01EE01A5
:080FF80083010A128A11552E33
:08400000FF3FFF3FFF3FFF3FC0
:04400E00D620FF3F7A
:00000001FF
