:060000000A128A110E280D
:10000800FE00030E83120313A4000A08A5000A12B7
:100018008A11572A0A128A11112883120313D90147
:10002800DA01DB01DC01DD01DE01DF01E001E101D4
:10003800E201E301E401E50183010A128A1124289F
:100048000A128A11D5240A128A11831203139F14E3
:10005800E301E401831203130618332834283C28EB
:10006800061C3728382834280130D6005608880757
:1000780086183F2840284628861C432844284028BC
:1000880001308802033083120313D8008A30D70066
:100098005530D600D60B4E28D70B4E28D80B4E28F5
:1000A800831203139F1859285A287B28E301E40177
:1000B800831203136308D600D60DD60D1F08560603
:1000C800C33956069F009F140130E3070318E40A5A
:1000D8000030E4076408803AFF0080307F02031D87
:1000E800772803306302031C7A287B285C28831254
:1000F80003135C08A9005B08A8005A08A700590860
:10010800A6000A128A11D4220A128A118312031332
:10011800270883160313A5008312031326088316E2
:100128000313A400053083120313CA000030CB0068
:100138000030C800C900FF30C6000030C7000030DA
:10014800C400C50083160313250883120313C300D4
:1001580083160313240883120313C2000A128A1198
:1001680029240A128A1183120313420883160313DF
:10017800A00083120313430883160313A100A201EE
:10018800A301230883120313B7008316031322085D
:1001980083120313B6008316031321088312031373
:1001A800B50083160313200883120313B40000302C
:1001B8000A128A11E5200A128A112E280A128A11B7
:1001C8000E2883120313BC003C080319EC28ED2801
:1001D8000129B71FF028F12801293409BE00350983
:1001E800BF003609C0003709C100BE0A0319BF0A9B
:1001F8000319C00A0319C10A09293708C1003608BA
:10020800C0003508BF003408BE003708360435047E
:100218003404031D102911291A290030B7000030B1
:10022800B6000030B5000030B4009E299630BD00FD
:100238002A290130B8003808BD0701300310C10C65
:10024800C00CBF0CBE0CFF3E031D2229FE30410529
:10025800031D2F2930291D294C290130B8003808E1
:10026800BD070130BE07003003180130BF0700305A
:1002780003180130C007003003180130C1070130EE
:100288000310C10CC00CBF0CBE0CFF3E031D44295B
:10029800FF304105031D5129522931295E290130BA
:1002A800BD020130B8000310BE0DBF0DC00DC10D59
:1002B800B80B5729C01B61296229682902303D0201
:1002C80003186729682953293D186B296C29742953
:1002D800FF30BE05FF30BF057F30C005FF30C105C8
:1002E8000310BD0C3D08B800B901BA01BB011830B4
:1002F8000310B80DB90DBA0DBB0DFF3E031D7C29C7
:100308003808BE043908BF043A08C0043B08C104D1
:100318003C080319902991299629B71F94299529F2
:100328009629C1174108B7004008B6003F08B50034
:100338003E08B4000800F80078080319A429A52984
:10034800B929F31FA829A929B9297009FA0071093F
:10035800FB007209FC007309FD00FA0A0319FB0A85
:100368000319FC0A0319FD0AC1297308FD00720864
:10037800FC007108FB007008FA007308720471042D
:100388007004031DC829C929D2290030F3000030A0
:10039800F2000030F1000030F000562A9630F900E3
:1003A800E2290130F4007408F90701300310FD0C4C
:1003B800FC0CFB0CFA0CFF3E031DDA29FE307D0510
:1003C800031DE729E829D529042A0130F400740817
:1003D800F9070130FA07003003180130FB07003035
:1003E80003180130FC07003003180130FD07013005
:1003F8000310FD0CFC0CFB0CFA0CFF3E031DFC2942
:10040800FF307D05031D092A0A2AE929162A013029
:10041800F9020130F4000310FA0DFB0DFC0DFD0D7F
:10042800F40B0F2AFC1B192A1A2A202A02307902F7
:1004380003181F2A202A0B2A7918232A242A2C2A4F
:10044800FF30FA05FF30FB057F30FC05FF30FD0566
:100458000310F90C7908F400F501F601F7011830DA
:100468000310F40DF50DF60DF70DFF3E031D342AAC
:100478007408FA047508FB047608FC047708FD0480
:1004880078080319482A492A4E2AF31F4C2A4D2A6C
:100498004E2AFD177D08F3007C08F2007B08F10066
:1004A8007A08F00008008C1D5A2A5B2A712A5C0819
:1004B800F3005B08F2005A08F1005908F0000A122C
:1004C8008A114C230A128A1170080A128A115D25B2
:1004D8000A128A11831203138C110C1F742A752AAD
:1004E800CD2A1F0CA000200C0F39013A031D7D2ACC
:1004F8007E2A952A1E08A000A1012008F0002108E4
:10050800F1000530F2000030F3000A128A11C2230C
:100518000A128A11710883120313E2007008E100BD
:10052800CC2A1F0CA000200C0F39003A031D9D2A6D
:100538009E2ABC2A1E08A000A101A201A30123082B
:10054800F3002208F2002108F1002008F000003032
:100558000A128A119F210A128A117308831203133F
:10056800DC007208DB007108DA007008D900CC2AB8
:100578001F0CA000200C0F39023A031DC42AC52AFB
:10058800CC2A1E08A000A1012008DD002108DE00F9
:100598000C1325088A00240E8300FE0E7E0E090027
:1005A800031083120313280D290DAF002F08031D14
:1005B800DE2ADF2AE82A0030A9000030A80000302F
:1005C800A7000030A6004B2B2608AA002708AB007E
:1005D8002808AC002908AD001F300310AD0CAC0C86
:1005E800AB0CAA0CFF3E031DF12A2A08AE00A8177F
:1005F800FF30A605FF30A705FF30A8050030A90584
:100608009630AF02AF1F092B0A2B242B2F08803AF4
:10061800973E0318102B112B122BDF2A01300310E1
:10062800A90CA80CA70CA60CFF3E031D132B013028
:10063800AA002A08AF07031D222B232B122B3B2BC2
:1006480020302F02031C292B2A2B362BDF2A0130BE
:10065800AA000310A60DA70DA80DA90DAA0B2D2BF6
:100668000130AF022F08031D3A2B3B2B2B2B2E08F2
:1006780003193F2B402B4B2BA609A709A809A90949
:10068800A60A0319A70A0319A80A0319A90A080040
:100698000310720D730DF9007908031D542B552BA7
:1006A8005E2B0030F3000030F2000030F100003023
:1006B800F000C12B7008F4007108F5007208F6000C
:1006C8007308F7001F300310F70CF60CF50CF40C48
:1006D800FF3E031D672B7408F800F217FF30F00582
:1006E800FF30F105FF30F2050030F3059630F902CE
:1006F800F91F7F2B802B9A2B7908803A973E031895
:10070800862B872B882B552B01300310F30CF20C0A
:10071800F10CF00CFF3E031D892B0130F400740826
:10072800F907031D982B992B882BB12B20307902C0
:10073800031C9F2BA02BAC2B552B0130F40003106E
:10074800F00DF10DF20DF30DF40BA32B0130F902AE
:100758007908031DB02BB12BA12B78080319B52BF1
:10076800B62BC12BF009F109F209F309F00A0319B4
:10077800F10A0319F20A0319F30A0800F601F11F36
:10078800C62BC72BCE2BF009F109F00A0319F10A81
:10079800F601F60AF31FD12BD22BDB2BF209F30952
:1007A800F20A0319F30A0130F4007408F606F70197
:1007B800F801700871040319E22BE32B1A2CF501D8
:1007C800F50AF12B01300310F00DF10DFF3E031D6A
:1007D800E72B0130F4007408F507F11FF42BF52B13
:1007E800E62B01300310F70DF80DFF3E031DF62B25
:1007F80071087302031D022C70087202031C052C79
:10080800062C0D2C7008F2027108031CF303F30286
:10081800771401300310F10CF00CFF3E031D0E2C71
:100828000130F502031D192C1A2CF52B7608031933
:100838001E2C1F2C242CF709F809F70A0319F80AAB
:100848007808F1007708F0000800831203134808BD
:100858004A02A8004908031C490A4B02A900440897
:100868004202A6004508031C450A4302A7000A12D3
:100878008A1118250A128A11831203132708AF0058
:100888002608AE0044084602AC004508031C450A89
:100898004702AD000A128A118F240A128A118312A4
:1008A800031348082C07CC0049080318490A2D07E8
:1008B800CD004C08CE004D08CF00D001D101510821
:1008C800B7005008B6004F08B5004E08B400003015
:1008D8000A128A11E5200A128A11831203133708B3
:1008E800D5003608D4003508D3003408D20055089E
:1008F800A9005408A8005308A7005208A6000A1225
:100908008A11D4220A128A11831203132708C300FA
:100918002608C200080083120313B201B3012C0891
:100928002D040319982C992CD02CB101B10AA72CAD
:1009380001300310AC0DAD0DFF3E031D9D2C0130A1
:10094800B0003008B107AD1FAA2CAB2C9C2C01308D
:100958000310B20DB30DFF3E031DAC2C2D082F0262
:10096800031DB82C2C082E02031CBB2CBC2CC32C3A
:100978002C08AE022D08031CAF03AF02321401305D
:100988000310AD0CAC0CFF3E031DC42C0130B102AA
:10099800031DCF2CD02CAB2C3308AD003208AC0093
:1009A800080003308316031788008901FF30831677
:1009B800031386008113FF30950088018312031307
:1009C80088018B170B178C11831603138C1585164A
:1009D80083120313A601A701A80124300A128A1161
:1009E8003F250A128A117030831603138F040F14DF
:1009F8009F131F129F12831203131F083F39403899
:100A08009F00C3309F051F14203083120313AA00D0
:100A1800AA0B0C2D0000831203130C138316031367
:100A28000C178B110B14080083120313AA01AB01D6
:100A3800261C1F2D202D262D2808AA070318AB0ACF
:100A48002908AB0701300310A80DA90DFF3E031DAF
:100A5800272D01300310A70CA60CFF3E031D2E2DD9
:100A680026082704031D392D3A2D1C2D2B08A70015
:100A78002A08A600080083120313A900831603138B
:100A8800871283120313291D4A2D4B2D512D280837
:100A98008316031394008715572D260828048316F8
:100AA8000313940087118312031329082704940061
:0E0AB8000800F000700883120313930008007A
:08400000FF3FFF3FFF3FFF3FC0
:04400E00D620FF3F7A
:00000001FF
