:060000000A128A11FC2F18
:100EEA00F00070088312031393000800831603139B
:100EFA00141C802F812F7B2F08000A128A117B274E
:100F0A000A128A118312031313080800F3008316C6
:100F1A0003138712731D922F932F972F7208940031
:100F2A0087159B2F70087204940087117308710447
:100F3A00831203139400080083160317880189019A
:100F4A00831603130711860188018312031386018E
:100F5A0088010715F001F101F20120300A128A1105
:100F6A008B270A128A117030831603138F040F1409
:100F7A0008000A128A11A1270A128A11831203137E
:100F8A0007110330F5009730F400F40BCA2FF50B64
:100F9A00CA2FCF2F8312031306080A128A11752744
:100FAA000A128A110A128A1182270A128A118312D4
:100FBA00031388000330F5009730F400F40BE32F95
:100FCA00F50BE32FE82F8312031307150330F600FE
:100FDA008A30F5005530F400F40BF12FF50BF12FA0
:100FEA00F60BF12FF82FC32F0A128A11002883015A
:060FFA000A128A11BE2F4D
:08400000FF3FFF3FFF3FFF3FC0
:04400E00D620FF3F7A
:00000001FF
