:060000000A128A11FC2F18
:100E7800F00070088312031393000800831603130D
:100E8800141C472F482F422F08000A128A114227A4
:100E98000A128A118312031313080800F300831639
:100EA80003138712731D592F5A2F5E2F720894004F
:100EB8008715622F700872049400871173087104F3
:100EC800831203139400080083160317880189010D
:100ED8008316031387100711850186018801831281
:100EE800031385018601880187140715F001F101B4
:100EF800F20120300A128A1152270A128A11703020
:100F0800831603138F040F1408000A128A11682726
:100F18000A128A118312031307110330F500973060
:100F2800F400F40B952FF50B952F9A2F83120313CA
:100F380006080A128A113C270A128A110A128A1113
:100F480049270A128A118312031388000330F50017
:100F58009730F400F40BAE2FF50BAE2FB32F83129E
:100F6800031307150330F6008A30F5005530F400F6
:100F7800F40BBC2FF50BBC2FF60BBC2FC32F831221
:100F8800031387100D30F500FB30F400F40BCA2F63
:100F9800F50BCA2FCF2F8312031306080A128A11E2
:100FA8003C270A128A110A128A1149270A128A1141
:100FB8008312031385000330F5009730F400F40B17
:100FC800E32FF50BE32FE82F831203138714033065
:100FD800F6008A30F5005530F400F40BF12FF50BCC
:100FE800F12FF60BF12FF82F8E2F0A128A110028F5
:080FF80083010A128A11892FFE
:08400000FF3FFF3FFF3FFF3FC0
:04400E00D620FF3F7A
:00000001FF
