:060000000A128A110E280D
:10000800FE00030E83120313A4000A08A5000A12B7
:100018008A11532A0A128A1111288313593084002D
:1000280069300A128A117A250A128A1183010A1282
:100038008A111E280A128A11E9240A128A118312C7
:1000480003139F14E301E401831203130808E60075
:1000580006182F2830283828061C3328342830283A
:100068000130D6005608880786183B283C284228C5
:10007800861C3F2840283C28013088020330831220
:100088000313D8008A30D7005530D600D60B4A283B
:10009800D70B4A28D80B4A28831203139F185528D0
:1000A80056287728E301E401831203136308D60076
:1000B800D60DD60D1F085606C33956069F009F1445
:1000C8000130E3070318E40A0030E4076408803AC3
:1000D800FF0080307F02031D732803306302031C76
:1000E800762877285828831203135C08A9005B0830
:1000F800A8005A08A7005908A6000A128A11E8227F
:100108000A128A1183120313270883160313A50002
:1001180083120313260883160313A40005308312E1
:100128000313CA000030CB000030C800C900FF30FC
:10013800C6000030C7000030C400C5008316031392
:10014800250883120313C30083160313240883129C
:100158000313C2000A128A113D240A128A1183125B
:100168000313420883160313A000831203134308E2
:1001780083160313A100A201A3012308831203130A
:10018800B70083160313220883120313B6008316DD
:100198000313210883120313B500831603132008E1
:1001A80083120313B40000300A128A11E1200A12E4
:1001B8008A1128280A128A110E2883120313BC00F8
:1001C8003C080319E828E928FD28B71FEC28ED2882
:1001D800FD283409BE003509BF003609C0003709BB
:1001E800C100BE0A0319BF0A0319C00A0319C10ACC
:1001F80005293708C1003608C0003508BF00340893
:10020800BE003708360435043404031D0C290D29B3
:1002180016290030B7000030B6000030B5000030B5
:10022800B4009A299630BD0026290130B800380854
:10023800BD0701300310C10CC00CBF0CBE0CFF3E43
:10024800031D1E29FE304105031D2B292C291929C0
:1002580048290130B8003808BD070130BE07003012
:1002680003180130BF07003003180130C007003001
:1002780003180130C10701300310C10CC00CBF0CBA
:10028800BE0CFF3E031D4029FF304105031D4D29CB
:100298004E292D295A290130BD020130B80003101A
:1002A800BE0DBF0DC00DC10DB80B5329C01B5D2974
:1002B8005E29642902303D020318632964294F2905
:1002C8003D18672968297029FF30BE05FF30BF0532
:1002D8007F30C005FF30C1050310BD0C3D08B800D4
:1002E800B901BA01BB0118300310B80DB90DBA0D28
:1002F800BB0DFF3E031D78293808BE043908BF042A
:100308003A08C0043B08C1043C0803198C298D290C
:100318009229B71F902991299229C1174108B7003E
:100328004008B6003F08B5003E08B4000800F800D1
:1003380078080319A029A129B529F31FA429A529FB
:10034800B5297009FA007109FB007209FC007309EC
:10035800FD00FA0A0319FB0A0319FC0A0319FD0A2E
:10036800BD297308FD007208FC007108FB007008C5
:10037800FA007308720471047004031DC429C529A6
:10038800CE290030F3000030F2000030F1000030D8
:10039800F000522A9630F900DE290130F400740882
:1003A800F90701300310FD0CFC0CFB0CFA0CFF3EA6
:1003B800031DD629FE307D05031DE329E429D12933
:1003C800002A0130F4007408F9070130FA070030F8
:1003D80003180130FB07003003180130FC07003018
:1003E80003180130FD0701300310FD0CFC0CFB0C59
:1003F800FA0CFF3E031DF829FF307D05031D052A71
:10040800062AE529122A0130F9020130F400031006
:10041800FA0DFB0DFC0DFD0DF40B0B2AFC1B152A28
:10042800162A1C2A0230790203181B2A1C2A072ABA
:1004380079181F2A202A282AFF30FA05FF30FB05E1
:100448007F30FC05FF30FD050310F90C7908F40036
:10045800F501F601F70118300310F40DF50DF60D4E
:10046800F70DFF3E031D302A7408FA047508FB04D3
:100478007608FC047708FD0478080319442A452AFD
:100488004A2AF31F482A492A4A2AFD177D08F300F9
:100498007C08F2007B08F1007A08F00008008C1D47
:1004A800562A572A852A0A128A1171250A128A1190
:1004B80083120313E7006708031D632A642A752A59
:1004C8005C08F3005B08F2005A08F1005908F000D4
:1004D8000A128A1160230A128A1170088312031300
:1004E800E5006703031D792A7A2A7C2A0808E500B3
:1004F80065080A128A1189250A128A1183120313C0
:100508008C110C1F882A892AE12A1F0CA000200CB4
:100518000F39013A031D912A922AA92A1E08A00020
:10052800A1012008F0002108F1000530F200003098
:10053800F3000A128A11D6230A128A11710883124B
:100548000313E2007008E100E02A1F0CA000200C51
:100558000F39003A031DB12AB22AD02A1E08A0007A
:10056800A101A201A3012308F3002208F200210837
:10057800F1002008F00000300A128A119B210A12AB
:100588008A11730883120313DC007208DB007108F8
:10059800DA007008D900E02A1F0CA000200C0F39DF
:1005A800023A031DD82AD92AE02A1E08A000A10170
:1005B8002008DD002108DE000C1325088A00240E1F
:1005C8008300FE0E7E0E0900031083120313280D0C
:1005D800290DAF002F08031DF22AF32AFC2A003048
:1005E800A9000030A8000030A7000030A6005F2B4B
:1005F8002608AA002708AB002808AC002908AD0087
:100608001F300310AD0CAC0CAB0CAA0CFF3E031D45
:10061800052B2A08AE00A817FF30A605FF30A7054E
:10062800FF30A8050030A9059630AF02AF1F1D2B7B
:100638001E2B382B2F08803A973E0318242B252B86
:10064800262BF32A01300310A90CA80CA70CA60C22
:10065800FF3E031D272B0130AA002A08AF07031D00
:10066800362B372B262B4F2B20302F02031C3D2BEC
:100678003E2B4A2BF32A0130AA000310A60DA70D22
:10068800A80DA90DAA0B412B0130AF022F08031D9D
:100698004E2B4F2B3F2B2E080319532B542B5F2B1C
:1006A800A609A709A809A909A60A0319A70A0319E7
:1006B800A80A0319A90A08000310720D730DF9009E
:1006C8007908031D682B692B722B0030F30000306A
:1006D800F2000030F1000030F000D52B7008F40073
:1006E8007108F5007208F6007308F7001F30031050
:1006F800F70CF60CF50CF40CFF3E031D7B2B74086D
:10070800F800F217FF30F005FF30F105FF30F20571
:100718000030F3059630F902F91F932B942BAE2B7A
:100728007908803A973E03189A2B9B2B9C2B692BB0
:1007380001300310F30CF20CF10CF00CFF3E031D1A
:100748009D2B0130F4007408F907031DAC2BAD2B69
:100758009C2BC52B20307902031CB32BB42BC02B48
:10076800692B0130F4000310F00DF10DF20DF30DBB
:10077800F40BB72B0130F9027908031DC42BC52BE4
:10078800B52B78080319C92BCA2BD52BF009F10909
:10079800F209F309F00A0319F10A0319F20A031915
:1007A800F30A0800F601F11FDA2BDB2BE22BF00924
:1007B800F109F00A0319F10AF601F60AF31FE52B0D
:1007C800E62BEF2BF209F309F20A0319F30A0130B9
:1007D800F4007408F606F701F801700871040319AB
:1007E800F62BF72B2E2CF501F50A052C01300310FA
:1007F800F00DF10DFF3E031DFB2B0130F4007408D2
:10080800F507F11F082C092CFA2B01300310F70DFE
:10081800F80DFF3E031D0A2C71087302031D162CE8
:1008280070087202031C192C1A2C212C7008F20271
:100838007108031CF303F302771401300310F10C61
:10084800F00CFF3E031D222C0130F502031D2D2C58
:100858002E2C092C76080319322C332C382CF70946
:10086800F809F70A0319F80A7808F1007708F00080
:1008780008008312031348084A02A8004908031C09
:10088800490A4B02A90044084202A6004508031C75
:10089800450A4302A7000A128A112C250A128A1156
:1008A800831203132708AF002608AE004408460247
:1008B800AC004508031C450A4702AD000A128A111C
:1008C800A3240A128A118312031348082C07CC00A8
:1008D80049080318490A2D07CD004C08CE004D08D9
:1008E800CF00D001D1015108B7005008B6004F0819
:1008F800B5004E08B40000300A128A11E1200A122D
:100908008A11831203133708D5003608D400350836
:10091800D3003408D2005508A9005408A800530889
:10092800A7005208A6000A128A11E8220A128A11A0
:10093800831203132708C3002608C2000800831285
:100948000313B201B3012C082D040319AC2CAD2CF0
:10095800E42CB101B10ABB2C01300310AC0DAD0D74
:10096800FF3E031DB12C0130B0003008B107AD1FA8
:10097800BE2CBF2CB02C01300310B20DB30DFF3EBE
:10098800031DC02C2D082F02031DCC2C2C082E0271
:10099800031CCF2CD02CD72C2C08AE022D08031CFE
:1009A800AF03AF02321401300310AD0CAC0CFF3EA4
:1009B800031DD82C0130B102031DE32CE42CBF2CFD
:1009C8003308AD003208AC00080003308316031763
:1009D80088008901FF308316031386008113FF30D6
:1009E800950088018312031388018B170B178C114C
:1009F800831603138C15851683120313A601A7010A
:100A0800A80124300A128A1153250A128A1170305B
:100A1800831603138F040F149F131F129F12831240
:100A280003131F083F3940389F00C3309F051F1428
:100A3800203083120313AA00AA0B202D0000831272
:100A480003130C13831603130C178B110B140800D4
:100A580083120313AA01AB01261C332D342D3A2D22
:100A68002808AA070318AB0A2908AB0701300310A6
:100A7800A80DA90DFF3E031D3B2D01300310A70C47
:100A8800A60CFF3E031D422D26082704031D4D2DED
:100A98004E2D302D2B08A7002A08A6000800831227
:100AA8000313A90083160313871283120313291D46
:100AB8005E2D5F2D652D2808831603139400871576
:100AC8006B2D2608280483160313940087118312BC
:100AD800031329082704940008000A128A118225A2
:100AE8000A128A1183120313130808006400800194
:100AF800840A04060319003404067B2D83160313A5
:100B0800141C872D882D822D0800F0007008831290
:060B180003139300080026
:08400000FF3FFF3FFF3FFF3FC0
:04400E00D620FF3F7A
:00000001FF
