:060000000A128A110C280F
:10000800FE00030EF1000A08F2000A128A118F2876
:100018000A128A110F2883010A128A1162280330F2
:100028008316031788008901FF30831603138500A0
:1000380070308F040F149F131F129F128312031323
:100048001F083F3940389F001F08C33904389F00F4
:100058001F142130F300F30B2F2883160313871482
:100068000715FF3092003F308312031397051708D6
:10007800F0390C3897000F309500CF3097058C1069
:10008800033092041215F0309D051D08F0390C3824
:100098009D000F309B001D129D128C1C5428552862
:1000A80051288C10831603130711831203130C13A2
:1000B800831603130C170B178B1708000A128A11E3
:1000C80013200A128A11831203139F149F186D2894
:1000D8006E286A282130F400F40B70288312031369
:1000E8001F0CF400740C0F39003A031D7C287D287E
:1000F80082281F08C33904389F008428C3309F050D
:100108002130F400F40B8628831203139F146A2805
:100118000A128A110C28831203130C1F942895289D
:10012800B5281F0CF000700C0F39013A031D9D28EB
:100138009E28A5281E08F0000310700C803E95002C
:10014800B4281F0CF000700C0F39003A031DAD28BD
:10015800AE28B4281E08F0000310700C803E9B00E7
:100168000C1372088A00710E8300FE0E7E0E0900C1
:08400000FF3FFF3FFF3FFF3FC0
:04400E00D538FF3F63
:00000001FF
