:060000000A128A110C280F
:10000800FE00030EF0000A08F1000A128A115A29AC
:100018000A128A110F28FA01FB0183010A128A11B8
:100028008828F40047283F30FB0086280630FB006C
:1000380086285B30FB008628F230FB008628663075
:10004800FB008628B630FB008628BE30FB008628D9
:10005800E030FB008628FE30FB008628F630FB00E7
:100068008628EE30FB0086283E30FB0086289C3030
:10007800FB0086287A30FB0086289E30FB00862805
:100088008E30FB0086287408F200F3017308003AEA
:1000980003195228313A0319722886287208303A0F
:1000A80003191728013A03191A28033A03191D28B6
:1000B800013A03192028073A03192328013A03199A
:1000C8002628033A03192928013A03192C280F3A3C
:1000D80003192F28013A0319322886287208303A62
:1000E80003193528013A03193828033A03193B281C
:1000F800013A03193E28073A03194128013A03191E
:10010800442886287B0808000030F200F3000030FD
:100118000A128A1152210A128A11FF30F200F301E1
:10012800F401F50100300A128A112E210A128A11EF
:10013800F201F301F40100300A128A113C210A127B
:100148008A110030F200F300FF30F4000A128A111D
:1001580048210A128A11003083120313A000A1005B
:100168000030A200A3000030A400A5000030A600C3
:10017800A700A801A80A0A128A11E7200A128A1100
:100188000230F9000430F800BA30F700F70BCA283B
:10019800F80BCA28F90BCA2800000A128A111F2175
:1001A8000A128A117208FA007A080A128A111520AE
:1001B8000A128A1183120313870001308800D1289C
:1001C8000A128A110C2883120313220C83160313B4
:1001D800031C9F1303189F1783120313240C831601
:1001E8000313031C1F1203181F1683120313260C74
:1001F80083160313031C9F1203189F1683120313FD
:100208001F142130F200F20B072983120313280868
:10021800F200F20EF20DF20D1F0872063F39720657
:100228009F002008F200F20DF20D1F087206C33974
:1002380072069F000800831203139F18242925299A
:1002480026299F141E08F400F5017408F2007508A9
:10025800F3000800F6007608831603138500720879
:1002680086007308870074088800750889000800EC
:10027800F500750883120313850072088700730858
:100288008800740889000800720C83160313031C85
:10029800811303188117740895000800F400740886
:1002A8008316031788007208890008000000710887
:0C02B8008A00700E8300FE0E7E0E09000E
:08400000FF3FFF3FFF3FFF3FC0
:04400E00D520FF3F7B
:00000001FF
