:060000000A128A110C280F
:10000800FE00030EF1000A08F2000A128A11842E7B
:100018000A128A110F28F901FA0183120313D90170
:1000280083010A128A119E2983120313B9002F3003
:10003800B400892925303C060319232824282E28B2
:10004800390884003C08831380000130B10031086E
:10005800B9078929BA01BB01B5013728351501301F
:10006800B1003108AE072E0884000A128A11532500
:100078000A128A11B100B2013208003A0319452860
:100088004A283108303A031932284A282E088400B1
:100098000A128A1153250A128A110A128A11C326D2
:1000A8000A128A11031C59285A28A02883120313FC
:1000B800BA01BB010A30F3000030F40083120313C5
:1000C8003B08F6003A08F5000A128A113D260A1282
:1000D8008A11740883120313BB007308BA002E0830
:1000E80084000A128A1153250A128A11D03EB100DF
:1000F800FF3003180030B2003108BA070318BB0AF2
:100108003208BB070130B1003108AE072E08840061
:100118000A128A1153250A128A110A128A11C32651
:100128000A128A11031899289A285E28A028C03034
:10013800B1003108B504BC28013083120313AE079F
:10014800FF302E0784000A128A1153250A128A11D9
:10015800BC00B100B2013208003A0319B428892959
:100168003108003A03199929753A03199B288929F6
:100178003408840083130008B600840A0008B70016
:100188000230B1003108B407BC01BC0A3C08B10018
:100198003107013E84000A128A1153250A128A1176
:1001A800B2000A128A1153250A128A11B3003308C1
:1001B8003702031DE128320836020318E428E5282F
:1001C800E628F0280130B1003108BC0705303C06AC
:1001D800031DEF28F028CA283B08803A803C031DFD
:1001E800F7283A083C020318FA28FB280729831243
:1001F80003133C08B100B2013108BA023208031CEB
:10020800BB03BB020B2983120313BA01BB01351DC3
:100218000E290F292B293A083B04031914291529FB
:100228004629390884003030831380000130B1003A
:100238003108B907FF30BA070318BB0AFF30BB07FC
:100248003A083B04031D29292A29152946293A0871
:100258003B04031930293129462939088400203004
:10026800831380000130B1003108B907FF30BA07A5
:100278000318BB0AFF30BB073A083B04031D452996
:10028800462931293C08B80080290A30A8000030E6
:10029800A9003808B1003107013E84000A128A110A
:1002A80053250A128A11A0000A128A1153250A122C
:1002B8008A11A1003708A3003608A2000A128A1181
:1002C80090250A128A11831203132108AB00200813
:1002D800AA000A128A11D6250A128A118312031358
:1002E8002808303EBC00390884003C08831380008D
:1002F8000130B1003108B907FF30B1003108B80743
:10030800380A031D8829892949290130AE07FF3099
:100318002E0784000A128A1153250A128A11BC007A
:100328003C08031D982999291E283908840083133D
:10033800800108000A128A1162260A128A11703096
:10034800831603138F00003083120313AB000030B1
:10035800AA002530A9008030A8000A128A11632358
:100368000A128A11153083120313CC004B30CB00CC
:10037800BD30CA00CA0BBE29CB0BBE29CC0BBE2987
:10038800C5291A30F4008030F5000A128A111226A5
:100398000A128A110B3083120313CC002630CB00CB
:1003A8005D30CA00CA0BD629CB0BD629CC0BD6296F
:1003B8000B30F4008030F5000A128A1112260A1256
:1003C8008A110B3083120313CC002630CB005D302A
:1003D800CA00CA0BED29CB0BED29CC0BED292E3029
:1003E800F4008030F5000A128A1112260A128A11C6
:1003F800831203139F14831203139F18042A052AD8
:10040800752A9F14752A1E08D9005908CA00CB01FD
:100418004A08B6004B08B7000030B800B900FF30F2
:10042800BA000030BB000030BC00BD000530BE0083
:100438000030BF000A128A11E3240A128A118312BB
:1004480003133708D7003608D6002E30F400803062
:10045800F5000A128A1112260A128A113130831203
:100468000313AE005708B0005608AF004D300A120B
:100478008A1118200A128A114D30F4000030F50054
:100488000A128A1112260A128A110A128A11B02631
:100498000A128A113030831203139A008E2A06300A
:1004A80083120313CB002F30CA00CA0B592ACB0B77
:1004B800592A5E2A013083120313CA004A088807A2
:1004C8004E2A063083120313CB002F30CA00CA0B02
:1004D8006B2ACB0B6B2A702A013083120313880214
:1004E8004E2A0A128A119D260A128A1183120313B0
:1004F800CA00CB014B08003A0319832A8E2A4A08FE
:100508002B3A0319532A063A0319652A1C3A031988
:10051800072A8E2A0A128A11EF260A128A11031C48
:10052800962A972AFF290A128A11D5260A128A11B1
:1005380083120313D80058080A128A11E3260A12F4
:100548008A11FF290A128A110C2883120313B0009A
:1005580030080319B02AB12AC52AAB1FB42AB52A14
:10056800C52A2809B2002909B3002A09B4002B09B1
:10057800B500B20A0319B30A0319B40A0319B50A74
:10058800CD2A2B08B5002A08B4002908B30028088A
:10059800B2002B082A0429042804031DD42AD52ACA
:1005A800DE2A0030AB000030AA000030A90000307D
:1005B800A800622B9630B100EE2A0130AC002C085E
:1005C800B10701300310B50CB40CB30CB20CFF3EEC
:1005D800031DE62AFE303505031DF32AF42AE12A15
:1005E800102B0130AC002C08B1070130B2070030E5
:1005F80003180130B307003003180130B407003086
:1006080003180130B50701300310B50CB40CB30C56
:10061800B20CFF3E031D082BFF303505031D152BBB
:10062800162BF52A222B0130B1020130AC00031041
:10063800B20DB30DB40DB50DAC0B1B2BB41B252B94
:10064800262B2C2B0230310203182B2B2C2B172B8B
:1006580031182F2B302B382BFF30B205FF30B30564
:100668007F30B405FF30B5050310B10C3108AC007C
:10067800AD01AE01AF0118300310AC0DAD0DAE0DDC
:10068800AF0DFF3E031D402B2C08B2042D08B30408
:100698002E08B4042F08B50430080319542B552B21
:1006A8005A2BAB1F582B592B5A2BB5173508AB00B3
:1006B8003408AA003308A9003208A80008008312E9
:1006C80003132808AC002908AD002A08AE002B083F
:1006D800AF0004300310AC0DAD0DAE0DAF0DFF3EF5
:1006E800031D6E2B2F08A3002E08A2002D08A100C1
:1006F8002C08A0000030A7007A30A6001230A50010
:100708000030A4000A128A117B240A128A1183126B
:1007180003132008FF3EB00021080318013EFF3EE6
:10072800B100B11F982B992B9B2BB001B101310857
:10073800803AFF0081307F02031DA42B0030300275
:10074800031CA72BA82BF62B831203132808AC0035
:100758002908AD002A08AE002B08AF0006300310A8
:10076800AC0DAD0DAE0DAF0DFF3E031DB32B2F0825
:10077800A3002E08A2002D08A1002C08A00000301C
:10078800A7007A30A6001230A5000030A4000A1293
:100798008A117B240A128A11831203132008FF3E50
:1007A800B00021080318013EFF3EB1003108803A2D
:1007B800FF0081307F02031DE32B00303002031C51
:1007C800E62BE72BED2BFF3083120313B00000302C
:1007D800B1008312031330088316031399002030E5
:1007E8009800FE2B83120313300883160313990015
:1007F80024309800903083120313980008000310E7
:10080800750D760DF8007808031D0B2C0C2C152C93
:100818000030F6000030F5000030F4000030F3003E
:100828007A2C730883120313A0007408A1007508BA
:10083800A2007608A3001F300310A30CA20CA10C81
:10084800A00CFF3E031D202C2008F700F517FF30F1
:10085800F305FF30F405FF30F5050030F605963056
:10086800F802F81F382C392C532C7808803A973E18
:1008780003183F2C402C412C0C2C01300310F60C93
:10088800F50CF40CF30CFF3E031D422C0130A000C4
:100898002008F807031D512C522C412C6A2C2030BB
:1008A8007802031C582C592C652C0C2C0130A00004
:1008B8000310F30DF40DF50DF60DA00B5C2C0130B3
:1008C800F8027808031D692C6A2C5A2C770803193A
:1008D8006E2C6F2C7A2CF309F409F509F609F30A42
:1008E8000319F40A0319F50A0319F60A0800003077
:1008F800F7000030F6000030F5000030F4008312F5
:100908000313230822042104200403198C2C8D2CA2
:10091800DA2CF801F80A9D2C0130F3000310A00D21
:10092800A10DA20DA30DF30B922C0130F300730857
:10093800F807A31FA02CA12C902C0130F300031062
:10094800F40DF50DF60DF70DF30BA32C2308270274
:10095800031DB82C22082602031DB82C21082502E5
:10096800031DB82C20082402031CBB2CBC2CCB2C48
:100978002008A4022108031C210FA5022208031C39
:10098800220FA6022308031C230FA70274140130A8
:100998000310A30CA20CA10CA00CFF3E031DCC2C31
:1009A8000130F802031DD92CDA2CA12C7708A300FA
:1009B8007608A2007508A1007408A0000800831238
:1009C80003133C083E02F5003D08031C3D0A3F02A4
:1009D800F60038083602F3003908031C390A3702D2
:1009E800F4000A128A113D260A128A117408831229
:1009F8000313A3007308A20038083A02A0003908BC
:100A0800031C390A3B02A1000A128A1190250A1216
:100A18008A11831203133C082007C0003D080318FD
:100A28003D0A2107C1004008C2004108C300C401B3
:100A3800C5014508AB004408AA004308A9004208BC
:100A4800A80000300A128A11A9220A128A118312F8
:100A580003132B08C9002A08C8002908C70028085A
:100A6800C6004908F6004808F5004708F40046089B
:100A7800F3000A128A1103240A128A1174088312D5
:100A88000313B7007308B6000800FF1B532D831328
:100A98007F1883170008840A0319FF0A0800053025
:100AA8008A000408840A82070034013400340A34B6
:100AB800003464340034E8340334103427343234D6
:100AC8002E3445346E3476346934613472342034CB
:100AD80041347334633469346934003431342E3426
:100AE8004C34653465347234203470346F34743463
:100AF80065346E34633469346F346D3465347434FA
:100B080072346F340D340A340034253430343334BD
:100B180075340D340A34003483120313A601A70177
:100B2800200821040319992D9A2DD12DA501A50A74
:100B3800A82D01300310A00DA10DFF3E031D9E2D11
:100B48000130A4002408A507A11FAB2DAC2D9D2DB5
:100B580001300310A60DA70DFF3E031DAD2D210882
:100B68002302031DB92D20082202031CBC2DBD2D14
:100B7800C42D2008A2022108031CA303A3022614E3
:100B880001300310A10CA00CFF3E031DC52D013040
:100B9800A502031DD02DD12DAC2D2708A1002608B4
:100BA800A000080083120313280829040319DD2D67
:100BB800DE2D0D2EAD01AD0AEC2D01300310A80D70
:100BC800A90DFF3E031DE22D0130AC002C08AD0736
:100BD800A91FEF2DF02DE12D29082B02031DF62D5D
:100BE80028082A02031CF92DFA2D002E2808AA022B
:100BF8002908031CAB03AB0201300310A90CA80C95
:100C0800FF3E031D012E0130AD02031D0C2E0D2EDB
:100C1800F02D2B08A9002A08A8000800F701292EA2
:100C280077087407840075080318750AFF000A120C
:100C38008A1149250A128A110A128A11E3260A1210
:100C48008A110130F6007608F707770874078400E0
:100C580075080318750A83120313FF000A128A1114
:100C680049250A128A11003A031D3B2E3C2E142EE8
:100C78000800F701F801731C422E432E492E75080F
:100C8800F7070318F80A7608F80701300310F50D7E
:100C9800F60DFF3E031D4A2E01300310F40CF30C31
:100CA800FF3E031D512E73087404031D5C2E5D2E38
:100CB8003F2E7808F4007708F30008000330831605
:100CC800031788008901FF308316031385009F13DB
:100CD8001F129F12831203131F083F3940389F00C9
:100CE800C3309F051F142130F300F30B792E8312B4
:100CF80003130C13831603130C170B178B17080019
:100D0800831203130C1F892E8A2E962E1F0CF000B7
:100D1800700C0F39003A031D922E932E952E1E0843
:100D2800D9000C1372088A00710E8300FE0E7E0E25
:100D38000900831203138C1AA22EA32EAE2E981C20
:100D4800A62EA72EAC2E1812000083120313181615
:100D58001A08AF2E003008001A30F4008030F50071
:100D68000A128A1112260A128A110B30F4008030F6
:100D7800F5000A128A1112260A128A110800F400D4
:100D8800F3013A3074020318CA2ECB2ED32E30301A
:100D98007402031CD02ED12ED32EF301F30A730C48
:100DA8000800831203138C1EDA2EDB2ED52E981C16
:100DB800DE2EDF2EE12E181218161A080800F3008E
:100DC80083160313981CE92EEA2EE42E7308831267
:100DD800031399000800831203138C1AF42EF52EBE
:0A0DE800F72E0310F82E0314080084
:08400000FF3FFF3FFF3FFF3FC0
:04400E00D538FF3F63
:00000001FF
