:060000000A128A110C280F
:10000800FE00030EF0000A08F1000A128A11D62831
:100018000A128A110F2883010A128A111328003044
:10002800F200F30003300A128A11EC200A128A1136
:10003800FF30F200F301F401F501FF300A128A11D2
:10004800BC200A128A11F201F301F40100300A12ED
:100058008A11CA200A128A110030F200F300FF3018
:10006800F4000A128A11E2200A128A110030F20002
:10007800F3000030F400F5000030F600F70000301F
:10008800F800F900FA01FA0A0A128A117F200A1206
:100098008A11153083120313A2004B30A100BD3022
:1000A800A000A00B5528A10B5528A20B55285C28A9
:1000B8000A128A11AD200A128A11720883120313D8
:1000C80088000618682869287128061C6C286D287D
:1000D80069280130A0002008870786187428752829
:1000E8005C28861C782879287528013087025C28C6
:1000F8000A128A110C28740C83160313031C9F130D
:1001080003189F17760C031C1F1203181F16780C70
:10011800031C9F1203189F16831203131F14213008
:10012800FB00FB0B95287A08FB00FB0EFB0DFB0D73
:10013800831203131F087B063F397B069F00720852
:10014800FB00FB0DFB0D1F087B06C3397B069F00D8
:100158000800831203139F18B228B328B4289F14E9
:100168001E08F400F5017408F2007508F300080091
:10017800F600760883160313850072088600730854
:10018800870074088800750889000800F50075085C
:1001980083120313850072088700730888007408A7
:1001A800890008000B1CD928DA28DB280000710810
:1001B8008A00700E8300FE0E7E0E0900720C8316F4
:1001C8000313031C81130318811774089500080092
:1001D800F400740883160317880072088900080061
:08400000FF3FFF3FFF3FFF3FC0
:04400E00D520FF3F7B
:00000001FF
