:100000000A128A11FA2F00308A000408840A820733
:10001000003432342E3445346E34763469346134ED
:1000200072342034413473346334693469340034B5
:100F4C00F000700883120313930008008316031338
:100F5C008712940120308312031394008316031319
:100F6C00871108000A128A11AC270A128A110A305A
:100F7C000A128A11A6270A128A110230F3000430D1
:100F8C00F200BA30F100F10BC92FF20BC92FF30BA1
:100F9C00C92F00000F300A128A11A6270A128A11D3
:100FAC000230F3000430F200BA30F100F10BDC2F08
:100FBC00F20BDC2FF30BDC2F000015300A128A1118
:100FCC00A6270A128A110230F3000430F200BA305C
:100FDC00F100F10BEF2FF20BEF2FF30BEF2F0000C3
:100FEC00BD2F0A128A110028F401F50183010A129F
:040FFC008A11B82F6F
:08400000FF3FFF3FFF3FFF3FC0
:04400E00D520FF3F7B
:00000001FF
