:060000000A128A110C280F
:10000800FE00030EF1000A08F2000A128A111328F2
:100018000A128A110F2883010A128A1153280B1C0D
:100028001628172830288312031306181C281D28A1
:100038002528861C202821281D280130F00070085A
:10004800850786182828292830282C280130850279
:10005800061D2F2830282A2872088A00710E83006E
:10006800FE0E7E0E090003308316031788008901EF
:10007800831603138501FF3086008312031385015D
:1000880086017030831603138F040F148312031331
:100098000C13831603130C170B178B1708000A127F
:1000A8008A1137200A128A1158280A128A110C2834
:08400000FF3FFF3FFF3FFF3FC0
:04400E00D520FF3F7B
:00000001FF
