:060000000A128A110C280F
:10000800FE00030EF0000A08F1000A128A114C28BB
:100018000A128A110F2883010A128A1113280A1258
:100028008A1134200A128A118312031306181D2814
:100038001E282628061C212822281E280130F20006
:1000480072088707861829282A281828861C2D2828
:100058002E282A280130870218280A128A110C280B
:100068000330831603178800890183160313870159
:10007800FF3086008113FF30950083120313870138
:100088007030831603138F040F140B178B17080097
:100098000B1C4F2850285128000071088A00700E48
:0800A8008300FE0E7E0E09002C
:08400000FF3FFF3FFF3FFF3FC0
:04400E00D520FF3F7B
:00000001FF
