:060000000A128A110E280D
:10000800FE00030E83120313A4000A08A5000A16B3
:100018008A15EB2D0A128A11112883120313E401A1
:10002800E501E601E701E801E90183160317AE01DE
:10003800AF01B001B101B201B301B401B50183014F
:100048000A128A11CB2E83160313D900C130CE00B1
:10005800B62E253062060319322833283D28590860
:1000680084006208831780000130C5004508D9075D
:10007800B62ECF01D001422850155C280130C007A8
:10008800FF30400784000A168A1100200A128A11DC
:10009800E200C500C6014608003A03195428B62EE6
:1000A8004508003A0319C62E663A03194028B62EA9
:1000B80000304F05C50007305005C6004508460406
:1000C800031967286828A42E0630D1000030D20012
:1000D8004E08840083130008DE00840A0008DF004D
:1000E800840A0008E000840A0008E1000430C50022
:1000F8004508CE07610883120313A900831603136A
:10010800600883120313A800831603135F08831281
:100118000313A700831603135E0883120313A600B4
:100128000030AD000030AC000030AB000030AA0059
:100138000A168A11D0200A128A110318A428A528A1
:10014800DE2883160313610883120313A90083169C
:100158000313600883120313A800831603135F08B0
:1001680083120313A700831603135E088312031375
:10017800A6000A168A15A2230A128A1183120313EB
:10018800290883160313E100831203132808831632
:100198000313E00083120313270883160313DF00F9
:1001A80083120313260883160313DE000330CF04DB
:1001B8000030D00483160313D701D80161088312D5
:1001C8000313A90083160313600883120313A800FE
:1001D800831603135F0883120313A7008316031300
:1001E8005E0883120313A6000030AD000030AC0097
:1001F8000030AB000030AA000A168A15EA240A1259
:100208008A11031808290929352A031083160313AC
:10021800600D610D823ED700FF3003180030D80012
:10022800FF30D7070318D80AFF30D80703308312E6
:100238000313A6000030A70083160313580883127F
:100248000313A90083160313570883120313A80086
:100258000A168A1508240A128A118312031327081A
:1002680083160313D8008312031326088316031377
:10027800D7000A3083120313AD000030AE00831696
:100288000313580883120313B00083160313570887
:1002980083120313AF000A168A151F270A128A1140
:1002A800831203132E0883160313D8008312031333
:1002B8002D0883160313D700D81F632964296A29D8
:1002C800FF30D7070318D80AFF30D8075703FF3A7B
:1002D8000A128A159D240A128A11831203135308DD
:1002E80083160313DD0083120313520883160313C6
:1002F800DC0083120313510883160313DB008312F7
:100308000313500883160313DA00610883120313DA
:10031800B90083160313600883120313B800831609
:1003280003135F0883120313B700831603135E08D1
:1003380083120313B600831603135D088312031395
:10034800BD00831603135C0883120313BC008316D5
:1003580003135B0883120313BB00831603135A08A5
:1003680083120313BA000A128A1558210A128A1135
:1003780083120313390883160313DD008312031352
:10038800380883160313DC00831203133708831617
:100398000313DB0083120313360883160313DA00F2
:1003A8005D0883120313A900831603135C088312E4
:1003B8000313A800831603135B0883120313A70013
:1003C800831603135A0883120313A6003F30AD00A7
:1003D8008030AC000030AB000030AA000A168A1149
:1003E800D0200A128A110318FA29FB29042AFF309F
:1003F80083160313D7070318D80AFF30D807352AFE
:10040800831603135D0883120313A90083160313CD
:100418005C0883120313A800831603135B08831276
:100428000313A700831603135A0883120313A600A5
:100438004130AD002030AC000030AB000030AA00E5
:100448000A168A11D0200A128A11031C2C2A2D2A76
:10045800352A013083160313D7070318D80A00304A
:10046800D80706300A168A119B230A128A118312AA
:100478000313530883160313A300831203135208AC
:1004880083160313A2008312031351088316031360
:10049800A10083120313500883160313A0006108F8
:1004A800A7006008A6005F08A5005E08A4000A1659
:1004B8008A11A8250A128A11831603132308E1005A
:1004C8002208E0002108DF002008DE005808803AF2
:1004D800FF0080307F02031D732A0A305702031879
:1004E800762A772AC62A8316031361088312031310
:1004F800A90083160313600883120313A800831648
:1005080003135F0883120313A700831603135E08FF
:1005180083120313A6000030AD000030AC00003099
:10052800AB000030AA000A168A15EA240A128A11BA
:1005380003189F2AA02A722B831603136108A300AD
:100548006008A2005F08A1005E08A0000A168A15CC
:1005580088270A128A118316031323082204210408
:100568002004031DB82AB92A722B5808803AFF00C4
:1005780080307F02031DC22A02305702031CC52A9D
:10058800C62A722B831603135D0883120313A9006E
:10059800831603135C0883120313A800831603133E
:1005A8005B0883120313A700831603135A088312E8
:1005B8000313A6004030AD008930AC007030AB00AA
:1005C8005F30AA000A168A11D0200A128A1103186D
:1005D800EE2AEF2AF82AF73083160313D7070318F1
:1005E800D80AFF30D807002BF83083160313D70733
:1005F8000318D80AFF30D80757080A128A159D240D
:100608000A128A1183120313530883160313DD0099
:1006180083120313520883160313DC008312031397
:10062800510883160313DB00831203135008831643
:100638000313DA00610883120313A9008316031356
:10064800600883120313A800831603135F0883123C
:100658000313A700831603135E0883120313A6006F
:10066800831603135D0883120313AD008316031367
:100678005C0883120313AC00831603135B08831210
:100688000313AB00831603135A0883120313AA003B
:100698000A168A11E3220A128A11831203132908FF
:1006A80083160313D6008312031328088316031333
:1006B800D50083120313270883160313D40083126B
:1006C8000313260883160313D3000030E10000301B
:1006D800E0000030DF000030DE00BC2B831603137F
:1006E8006108A3006008A2005F08A1005E08A000DE
:1006F8000A168A1588270A128A11831603132308F3
:10070800D6002208D5002108D4002008D3005608B6
:10071800AD005508AC005408AB005308AA000030DF
:100728000A128A159E200A128A11831603132D08AD
:10073800BB002C08BA002B08B9002A08B8006108C9
:10074800BF006008BE005F08BD005E08BC000A1656
:100758008A15E4230A128A11831603133B08E10061
:100768003A08E0003908DF003808DE00D701D80170
:10077800E201E20A6208C50001300310C50DFF3E20
:10078800031DC12B0310450D793E84000A168A11FA
:1007980000200A128A11C6000A168A1100200A12BD
:1007A8008A11C7000A168A1100200A128A11C80085
:1007B8000A168A1100200A128A11C900490856022D
:1007C800031DF02B48085502031DF02B470854025F
:1007D800031DF02B460853020318F32BF42BF52BBB
:1007E800FF2B0130C5004508E2070A306206031DE9
:1007F800FE2BFF2BBE2B03304F05C50000305005E4
:10080800C6004508460403190A2C0B2CB92C5908B4
:1008180084002D30831780000130C5004508D907B2
:10082800B92C6208C50001300310C50DFF3E031D39
:10083800182C0310450D793E84000A168A110020F1
:100848000A128A1183120313A6000A168A110020BD
:100858000A128A11A7000A168A1100200A128A11A0
:10086800A8000A168A1100200A128A11A900831604
:100878000313560883120313AD0083160313550898
:1008880083120313AC008316031354088312031353
:10089800AB0083160313530883120313AA000A1626
:1008A8008A15B7260A128A11831203132908831698
:1008B8000313DD0083120313280883160313DC00D7
:1008C80083120313270883160313DB008312031311
:1008D800260883160313DA00003083120313A900D5
:1008E8000030A8000030A7000A30A60083160313C2
:1008F8005D0883120313AD00831603135C0883128B
:100908000313AC00831603135B0883120313AB00B5
:10091800831603135A0883120313AA000A168A15AA
:100928003A250A128A11831203132908831603131E
:10093800DD0083120313280883160313DC008312D7
:100948000313270883160313DB00831203132608F7
:1009580083160313DA00590884005A08303E8317B7
:1009680080000130C5004508D9070130E202620A5B
:10097800031DBF2CC02C152CD22C83160313590829
:1009880084003030831780000130C5004508D9073E
:10099800FF30D7070318D80AFF30D8075808803A1D
:1009A800FF0080307F02031DDB2C01305702031843
:1009B800DE2CDF2CC12C831603135208803AFF006B
:1009C80080307F02031DEA2C09305102031CED2CF4
:1009D800EE2CF32C083083160313E200F72C831651
:1009E80003135108E2006208C500C6014508D10298
:1009F8004608031CD203D20262080319042D052DF0
:100A08000E2D590884002E30831780000130C50050
:100A18004508D90762080A128A159D240A128A1104
:100A280083120313530883160313CD008312031391
:100A3800520883160313CC0083120313510883163C
:100A48000313CB0083120313500883160313CA0041
:100A58004D0883120313BD00831603134C08831239
:100A68000313BC00831603134B0883120313BB0044
:100A7800831603134A0883120313BA008316031359
:100A8800610883120313B9008316031360088312E5
:100A98000313B800831603135F0883120313B70008
:100AA800831603135E0883120313B6000A128A150D
:100AB80058210A128A118312031339088316031363
:100AC800A30083120313380883160313A2008312AA
:100AD8000313370883160313A10083120313360880
:100AE80083160313A0000A168A1588270A128A118A
:100AF800831603132308D6002208D5002108D40042
:100B08002008D300862E6208C50001300310C50DE9
:100B1800FF3E031D8A2D0310450D793E84000A16F9
:100B28008A1100200A128A1183120313A6000A16DA
:100B38008A1100200A128A11A7000A168A110020B9
:100B48000A128A11A8000A168A1100200A128A11AC
:100B5800A90083160313560883120313AD008316E6
:100B68000313550883120313AC00831603135408A8
:100B780083120313AB008316031353088312031362
:100B8800AA000A168A15B7260A128A1183120313B5
:100B9800290883160313DD0083120313280883161C
:100BA8000313DC0083120313270883160313DB00E7
:100BB80083120313260883160313DA000030831206
:100BC8000313A9000030A8000030A7000A30A600CF
:100BD800831603135D0883120313AD0083160313F2
:100BE8005C0883120313AC00831603135B0883129B
:100BF8000313AB00831603135A0883120313AA00C6
:100C08000A168A153A250A128A118312031329082B
:100C180083160313DD0083120313280883160313B6
:100C2800DC0083120313270883160313DB008312E7
:100C38000313260883160313DA00590884005A0898
:100C4800303E831780000130C5004508D907620887
:100C5800C50001300310C50DFF3E031D2E2E0310E5
:100C6800450D793E84000A168A1100200A128A115D
:100C780083120313A6000A168A1100200A128A1189
:100C8800A7000A168A1100200A128A11A8000A165B
:100C98008A1100200A128A11A90083160313560824
:100CA80083120313AD00831603135508831203132D
:100CB800AC0083160313540883120313AB00831686
:100CC8000313530883120313AA000A168A153A2538
:100CD8000A128A1183120313290883160313D600F4
:100CE80083120313280883160313D50083120313F2
:100CF800270883160313D4008312031326088316C8
:100D08000313D3000130E202620A031D8C2E8D2EDC
:100D1800872D9D2E590884003030831780000130BC
:100D2800C5004508D907FF30D1070318D20AFF309C
:100D3800D20751085204031DA22EA32E8E2EB62EC2
:100D480003304F05C50000305005C600450846046D
:100D58000319AF2EB02EB62E590884002D308317F4
:100D6800800038280130C007FF30400784000A1689
:100D78008A1100200A128A11E2006208031DC52E9A
:100D8800C62E2D28590884008317800108000A16EA
:100D98008A152F240A128A11831203139F148316AB
:100DA8000317B201B3010730B4000030B5000A16CA
:100DB8008A15C1230A128A110A168A15AF230A1244
:100DC8008A11831203139F18EA2EEB2E182F83160D
:100DD8000317B201B30183160317320883160313EE
:100DE800E300E30DE30D831203131F0883160313B7
:100DF8006306C3396306831203139F009F140130EF
:100E080083160317B2070318B30A0030B307330871
:100E1800803AFF0080307F02031D142F0330320216
:100E2800031C172F182FEF2E83160317310883166C
:100E38000313A30083160317300883160313A200B5
:100E4800831603172F0883160313A10083160317AD
:100E58002E0883160313A0000A168A1588270A127B
:100E68008A1183160313210883160317AD0083160E
:100E78000313200883160317AC00053083160313E9
:100E8800C0000030C1000030BE00BF00FF30BC0011
:100E98000030BD000030BA00BB00831603172D08D0
:100EA80083160313B900831603172C08831603133C
:100EB800B8000A128A151A200A128A118316031317
:100EC800380883160317A8008316031339088316F6
:100ED8000317A900AA01AB012B0883160313AD0061
:100EE800831603172A0883160313AC008316031707
:100EF800290883160313AB008316031728088316E3
:100F08000313AA0000300A128A159E200A128A11B9
:100F1800831603132D0883160317A70083160313DC
:100F28002C0883160317A600831603132B088316B1
:100F38000317A500831603132A0883160317A400B2
:100F4800A13083160313C0008316031727088316DE
:100F58000313C40083160317260883160313C3005C
:100F680083160317250883160313C2008316031775
:100F7800240883160313C10090300A128A1127200F
:100F88000A128A110A168A15AF230A128A1190309A
:100F98000A168A11B5200A128A11E52E0A128A1138
:100FA8000E2883120313AE00AA01AB012608A8007D
:100FB800A9012808AC002908AD002E1CE42FE52F54
:100FC800EB2F2C08AA070318AB0A2D08AB07013032
:100FD8000310AC0DAD0DFF3E031DEC2F0310AE0C3E
:100FE8002E08031DF82FF92FE12F2B08A7002A0838
:040FF800A600080047
:10100600831203138717C73083120313A6000B2816
:10101600A60B0A280E28831203138713C7308312E0
:101026000313A6001628A60B1528192808008316F0
:1010360003133E08400283120313A800831603130A
:101046003F08031C3F0A410283120313A9008316BB
:1010560003133A08380283120313A60083160313F8
:101066003B08031C3B0A390283120313A7000A1626
:101076008A1508240A128A15831203132708AF005B
:101086002608AE00831603133A083C0283120313A4
:10109600AC00831603133B08031C3B0A3D02831274
:1010A6000313AD000A168A15A4240A128A1583169C
:1010B60003133E08831203132C0783160313C2007F
:1010C6003F0803183F0A831203132D0783160313E1
:1010D600C3004208C4004308C500C601C70147084B
:1010E600AD004608AC004508AB004408AA00003035
:1010F6000A128A159E200A128A15831603132D08D2
:10110600CB002C08CA002B08C9002A08C8004B08C7
:10111600A3004A08A2004908A1004808A0000A1630
:101126008A1588270A128A15831603132108B9001F
:101136002008B800080083160313B200320803190A
:10114600A528A628BA28AD1FA928AA28BA282A0998
:10115600B4002B09B5002C09B6002D09B700B40A56
:101166000319B50A0319B60A0319B70AC2282D08C6
:10117600B7002C08B6002B08B5002A08B4002D08C5
:101186002C042B042A04031DC928CA28D32800309E
:10119600AD000030AC000030AB000030AA0057298B
:1011A6009630B300E3280130AE002E08B3070130B5
:1011B6000310B70CB60CB50CB40CFF3E031DDB28B0
:1011C600FE303705031DE828E928D6280529013011
:1011D600AE002E08B3070130B40700300318013003
:1011E600B507003003180130B60700300318013088
:1011F600B70701300310B70CB60CB50CB40CFF3EA4
:10120600031DFD28FF303705031D0A290B29EA288F
:1012160017290130B3020130AE000310B40DB50D2D
:10122600B60DB70DAE0B1029B61B1A291B2921299D
:10123600023033020318202921290C2933182429C6
:1012460025292D29FF30B405FF30B5057F30B605B9
:10125600FF30B7050310B30C3308AE00AF01B00181
:10126600B10118300310AE0DAF0DB00DB10DFF3E3C
:10127600031D35292E08B4042F08B5043008B6041A
:101286003108B7043208031949294A294F29AD1FE5
:101296004D294E294F29B7173708AD003608AC003F
:1012A6003508AB003408AA00080083120313390876
:1012B6008039C3003908BE003E07C900B81F64293B
:1012C600652966294914490803196A296B297A2967
:1012D600490A031D6F29702978290030B9000030AA
:1012E600B8000030B7000030B600B81782290030C9
:1012F600B9000030B8000030B7000030B6003D0835
:101306008039BE003E08C3063D08BE003E07C80041
:10131600BC1F8E298F29902948144808031994293F
:101326009529A429480A031D99299A29A22900303A
:10133600BD000030BC000030BB000030BA00BC1756
:10134600AC290030BD000030BC000030BB000030CE
:10135600BA0048080319B029B129B6294908031D5E
:10136600B529B629BF290030B9000030B8000030D1
:10137600B7000030B6009C2C3608A6003C080A12BE
:101386008A11D5270A128A15831203132708CF005C
:101396002608CE004E08BE00BF01C001C1014108AB
:1013A600C7004008C6003F08C5003E08C4004F08F5
:1013B600BE00BF01C001C1014108CD004008CC00FC
:1013C6003F08CB003E08CA003708A6003B080A12B1
:1013D6008A11D5270A128A15831203132708CF000C
:1013E6002608CE004E08BE00BF01C001C1013E085E
:1013F600C4073F0803110318013E0319032AC50752
:10140600400803110318013E03190A2AC6074108BA
:1014160003110318013E0319112AC7074F08BE001E
:10142600BF01C001C1013E08CA073F0803110318E6
:10143600013E03191F2ACB07400803110318013E7A
:101446000319262ACC07410803110318013E031984
:101456002D2ACD073808A6003A080A128A11D52780
:101466000A128A15831203132708CF002608CE0016
:101476004E08BE00BF01C001C1013E08C4073F08B7
:1014860003110318013E0319492AC5074008031131
:101496000318013E0319502AC60741080311031811
:1014A600013E0319572AC7074F08BE00BF01C001F6
:1014B600C1013E08CA073F0803110318013E03197C
:1014C600652ACB07400803110318013E03196C2A4D
:1014D600CC07410803110318013E0319732ACD07EF
:1014E6000830BE000310C40DC50DC60DC70DBE0BDA
:1014F600752A3708A6003A080A128A11D5270A1251
:101506008A15831203132708CF002608CE004E083B
:10151600BE004F08BF00C001C1013E08C4073F0816
:1015260003110318013E0319992AC5074008031140
:101536000318013E0319A02AC60741080311031820
:10154600013E0319A72AC7073608A6003B080A1258
:101556008A11D5270A128A15831203132708CF008A
:101566002608CE004E08BE004F08BF00C001C101CC
:101576003E08C4073F0803110318013E0319C42A95
:10158600C507400803110318013E0319CB2AC607F5
:10159600410803110318013E0319D22AC707083070
:1015A600BE000310C40DC50DC60DC70DBE0BD42A53
:1015B6003608A6003A080A128A11D5270A128A1591
:1015C600831203132708CF002608CE004E08BE005C
:1015D6004F08BF00C001C1013E08C4073F08031100
:1015E6000318013E0319F82AC5074008031103181A
:1015F600013E0319FF2AC607410803110318013EDD
:101606000319062BC7073708A6003C080A128A11D9
:10161600D5270A128A15831203132708CF00260836
:10162600CE004E08BE004F08BF00C001C1013E08F3
:10163600CA073F0803110318013E0319232BCB07E2
:10164600400803110318013E03192A2BCC07410851
:1016560003110318013E0319312BCD073808A600E4
:101666003B080A128A11D5270A128A158312031318
:101676002708CF002608CE004E08BE004F08BF0040
:10168600C001C1013E08CA073F0803110318013E05
:1016960003194E2BCB07400803110318013E03190B
:1016A600552BCC07410803110318013E03195C2B87
:1016B600CD073808A6003C080A128A11D5270A1257
:1016C6008A15831203132708CF002608CE004E087A
:1016D600BE004F08BF00C001C10108300310BE0D97
:1016E600BF0DC00DC10DFF3E031D712B3E08CA077D
:1016F6003F0803110318013E0319822BCB0740084C
:1017060003110318013E0319892BCC074108031165
:101716000318013E0319902BCD074408BE00450867
:10172600BF004608C0004708C10018300310C10CAE
:10173600C00CBF0CBE0CFF3E031D992B3E08CA070A
:101746003F0803110318013E0319AA2BCB074008D3
:1017560003110318013E0319B12BCC0741080311ED
:101766000318013E0319B82BCD070830BE0003103D
:10177600C40DC50DC60DC70DBE0BBA2B49084807CB
:10178600BE00BF01BF0D3E08823ECE003F080318D3
:10179600013EFF3ECF00EC2B0130BE000310CA0D08
:1017A600CB0DCC0DCD0DBE0BD12BC71FDB2BDC2BF0
:1017B600DD2B4A140130BE000310C40DC50DC60D45
:1017C600C70DBE0BDF2BFF30CE070318CF0AFF3045
:1017D600CF07CC1FEF2BF02BCF2BC801C71FF42B45
:1017E600F52B112CFF304405BE00FF304505BF0028
:1017F600FF304605C0007F304705C1004108400460
:101806003F043E040319082C092C0C2CC801C80AF5
:10181600112C4A1C0F2C102C112C092C48080319CA
:10182600152C162C472C0130CA070030031801303E
:10183600CB07003003180130CC0700300318013005
:10184600CD074D1C272C282C472C4A08BE004B08D8
:10185600BF004C08C0004D08C1000130C200410D58
:10186600C10CC00CBF0CBE0CC20B322C4108CD0003
:101876004008CC003F08CB003E08CA000130CE0726
:101886000318CF0A0030CF074F08803AFF00803098
:101896007F02031D502CFF304E02031C532C542C88
:1018A6005F2C7F3083120313CD008030CC000030D4
:1018B600CB000030CA00902C831203134F08803AE5
:1018C600FF0080307F02031D6A2C01304E02031890
:1018D6006D2C6E2C7A2C003083120313CD00003051
:1018E600CC000030CB000030CA00C301902C83121C
:1018F60003134E08C900FF30CA05FF30CB057F3001
:10190600CC050030CD05491C892C8A2C8B2CCC1794
:101916004908BE0003103E0CCD004308BE003E0839
:10192600CD044D08B9004C08B8004B08B7004A086A
:10193600B600080083120313E200E21FA32CA42CB6
:10194600532EE209E20A6208803A123E031CAC2CCE
:10195600AD2C972D0A30AD000030AE006208A8000D
:10196600A901A81BA9036430A6000030A7000A1627
:101976008A1590250A128A15831203132708B000C8
:101986002608AF000A168A151F270A128A1583121F
:1019960003132D08D40001300310D40DFF3E031DA0
:1019A600CF2C0310540D593E84000A168A110020CC
:1019B6000A128A15D5000A168A1100200A128A15FB
:1019C600D6000A168A1100200A128A15D7000A16AE
:1019D6008A1100200A128A15D8005808B90057083B
:1019E600B8005608B7005508B6006430AD000030A0
:1019F600AE006208AF00B001AF1BB0030A168A152D
:101A06001F270A128A15831203132D08D9000130E5
:101A16000310D90DFF3E031D0B2D0310590D7D3EFE
:101A260084000A168A1100200A128A15DA000A169C
:101A36008A1100200A128A15DB000A168A11002074
:101A46000A128A15DC000A168A1100200A128A1563
:101A5600DD005D08BD005C08BC005B08BB005A08E1
:101A6600BA000A128A1558210A128A15831203131C
:101A76003908E1003808E0003708DF003608DE00E4
:101A86000A30A6000030A7006208A800A901A81B1A
:101A9600A9030A168A1590250A128A1583120313BA
:101AA6002608D40001300310D40DFF3E031D562D29
:101AB6000310540D353E84000A168A1100200A12BE
:101AC6008A15D5000A168A1100200A128A15D60030
:101AD6000A168A1100200A128A15D7000A168A11D8
:101AE60000200A128A15D8005808B9005708B8000D
:101AF6005608B7005508B6006108BD006008BC006E
:101B06005F08BB005E08BA000A128A1558210A123D
:101B16008A15831203133908D3003808D200370810
:101B2600D1003608D000FF2F6208803A753E031CAC
:101B36009D2D9E2D262E0A30A6000030A700620895
:101B4600A800A901A81BA9030A168A1590250A123E
:101B56008A15831203132608D40001300310D40D0E
:101B6600FF3E031DB12D0310540D353E84000A16A9
:101B76008A1100200A128A15D5000A168A11002039
:101B86000A128A15D6000A168A1100200A128A1528
:101B9600D7000A168A1100200A128A15D80058089A
:101BA600B9005708B8005608B7005508B6000A30FD
:101BB600AD000030AE006208AF00B001AF1BB0034D
:101BC6000A168A151F270A128A15831203132D086F
:101BD600D90001300310D90DFF3E031DED2D031072
:101BE600590D593E84000A168A1100200A128A15D8
:101BF600DA000A168A1100200A128A15DB000A1674
:101C06008A1100200A128A15DC000A168A110020A1
:101C16000A128A15DD005D08BD005C08BC005B0881
:101C2600BB005A08BA000A128A1558210A128A15E8
:101C3600831203133908D3003808D2003708D100BD
:101C46003608D000FF2F6208D40001300310D40DEF
:101C5600FF3E031D292E0310540D353E84000A163F
:101C66008A1100200A128A15D5000A168A11002048
:101C76000A128A15D6000A168A1100200A128A1537
:101C8600D7000A168A1100200A128A15D8005808A9
:101C9600D3005708D2005608D1005508D000FF2FB0
:101CA6006208803A123E031C592E5A2E442F0A30DF
:101CB600AD000030AE006208A800A901A81BA90368
:101CC6006430A6000030A7000A168A1590250A126D
:101CD6008A15831203132708B0002608AF000A16D8
:101CE6008A151F270A128A15831203132D08D4009A
:101CF60001300310D40DFF3E031D7C2E0310540D3E
:101D0600253E84000A168A1100200A128A15D5007B
:101D16000A168A1100200A128A15D6000A168A1196
:101D260000200A128A15D7000A168A1100200A1204
:101D36008A15D8005808B9005708B8005608B700E1
:101D46005508B6006430AD000030AE006208AF0042
:101D5600B001AF1BB0030A168A151F270A128A158F
:101D6600831203132D08D90001300310D90DFF3E4D
:101D7600031DB82E0310590D493E84000A168A1118
:101D860000200A128A15DA000A168A1100200A12A1
:101D96008A15DB000A168A1100200A128A15DC0051
:101DA6000A168A1100200A128A15DD005D08BD0098
:101DB6005C08BC005B08BB005A08BA000A128A1508
:101DC60058210A128A15831203133908E1003808CC
:101DD600E0003708DF003608DE000A30A6000030D3
:101DE600A7006208A800A901A81BA9030A168A155C
:101DF60090250A128A15831203132608D40001308F
:101E06000310D40DFF3E031D032F0310540D013E96
:101E160084000A168A1100200A128A15D5000A16AD
:101E26008A1100200A128A15D6000A168A11002085
:101E36000A128A15D7000A168A1100200A128A1574
:101E4600D8005808B9005708B8005608B700550812
:101E5600B6006108BD006008BC005F08BB005E08F4
:101E6600BA000A128A1558210A128A158312031318
:101E76003908D3003808D2003708D1003608D00018
:101E8600FF2F6208803A753E031C4A2F4B2FD32F33
:101E96000A30A6000030A7006208A800A901A81B06
:101EA600A9030A168A1590250A128A1583120313A6
:101EB6002608D40001300310D40DFF3E031D5E2F0B
:101EC6000310540D013E84000A168A1100200A12DE
:101ED6008A15D5000A168A1100200A128A15D6001C
:101EE6000A168A1100200A128A15D7000A168A11C4
:101EF60000200A128A15D8005808B9005708B800F9
:101F06005608B7005508B6000A30AD000030AE00DE
:101F16006208AF00B001AF1BB0030A168A151F276F
:101F26000A128A15831203132D08D90001300310F3
:101F3600D90DFF3E031D9A2F0310590D253E84002F
:101F46000A168A1100200A128A15DA000A168A1160
:101F560000200A128A15DB000A168A1100200A12CE
:101F66008A15DC000A168A1100200A128A15DD007D
:101F76005D08BD005C08BC005B08BB005A08BA00DF
:101F86000A128A1558210A128A1583120313390870
:101F9600D3003808D2003708D1003608D000FF2F0A
:101FA6006208D40001300310D40DFF3E031DD62F66
:101FB6000310540D013E84000A168A1100200A12ED
:101FC6008A15D5000A168A1100200A128A15D6002B
:101FD6000A168A1100200A128A15D7000A168A11D3
:101FE60000200A128A15D8005808D3005708D200D4
:101FF6005608D1005508D000080010308A000408A1
:10200600840A820700340034003480343F340034BC
:1020160000342034413400340034C83442340034AF
:1020260000347A344434003440341C3446340034AA
:102036005034C3344734003424347434493480343F
:10204600963418344B342034BC34BE344C342834E3
:102056006B346E344E34F934023415345034EC3467
:102066007834AD346034CA34F234493471340034CF
:10207600003480343F34CD34CC34CC343D340A344F
:10208600D73423343C346F34123483343A3417341F
:10209600B734D1343834AC34C53427343734BD344E
:1020A6003734863435349534BF34D63433347734C4
:1020B600CC342B3432345F34703489343034FF34CA
:1020C600E634DB342E340834E5343C341E346034D4
:1020D6004234A2340D3441347434693463346C347C
:1020E600653457346F3472346C3464342E3463344C
:1020F6006F346D34003401340034003400340A3453
:102106000034003400346434003400340034E834DD
:102116000334003400341034273400340034A0343F
:10212600863401340034403442340F340034803471
:102136009634983400340034E134F53405340034F0
:10214600CA349A343B3476346F346C3474343D3448
:08215600203425346634003406
:10216A0083120313A900C7282908840000080A1645
:10217A008A1596230A168A11013083120313A800BE
:10218A002808A9072908840083170008031DCE28F8
:10219A00CF28B92808000030831203132605AE00A1
:1021AA0000302705AF0080302805B0007F302905B0
:1021BA00B100310830042F042E04031DE528E62857
:1021CA00EE280030A9000030A8000030A700003037
:1021DA00A60000302A05AE0000302B05AF00803083
:1021EA002C05B0007F302D05B100310830042F04D2
:1021FA002E04031D012902290A290030AD000030EE
:10220A00AC000030AB000030AA00A91F0D290E292E
:10221A0032290030AE000030AF000030B00080300C
:10222A00B1002608AE022708031C270F1D291E2904
:10223A00AF022808031C280F23292429B0022908E1
:10224A00031C290F29292A29B1023108A9003008BB
:10225A00A8002F08A7002E08A600AD1F3529362989
:10226A005A290030AE000030AF000030B000803094
:10227A00B1002A08AE022B08031C2B0F4529462958
:10228A00AF022C08031C2C0F4B294C29B0022D0835
:10229A00031C2D0F51295229B1023108AD00300813
:1022AA00AC002F08AB002E08AA008030A9068030A7
:1022BA00AD062D082902031D6C292C082802031DCE
:1022CA006C292B082702031D6C292A0826020318E9
:1022DA006F297029722903107329031408008312C5
:1022EA0003132608AE002708AF002808B000031021
:1022FA002F0D300DB6003608031D842985298E2935
:10230A000030A9000030A8000030A7000030A60065
:10231A002A2A2A08AE002B08AF002C08B0000310A6
:10232A002F0D300DB5003508031D9C299D299E29C6
:10233A008529A717FF30A605FF30A7050030A80595
:10234A00AB17FF30AA05FF30AB050030AC050030F3
:10235A00B4000030B3000030B2000030B1007F306A
:10236A00B60298303507AE002E08B6021830B5000E
:10237A000130AE000310B10DB20DB30DB40DAE0BAA
:10238A00BF292C082802031DD0292B082702031D68
:10239A00D0292A082602031CD329D429DF292A088E
:1023AA00A6022B08031C2B0FA7022C08031C2C0ABD
:1023BA00A802311401300310A60DA70DA80DFF3E87
:1023CA00031DE0290130B502031DEC29ED29BD29C1
:1023DA00B61FF029F1290B2A3608803A973E0318CE
:1023EA00F729F829F929852901300310B40CB30C0F
:1023FA00B20CB10CFF3E031DFA290130AE002E08C3
:10240A00B607031D092A0A2AF929222A1830360290
:10241A00031C102A112A1D2A85290130AE00031037
:10242A00B10DB20DB30DB40DAE0B142A0130B602C4
:10243A003608031D212A222A122A3408A900330841
:10244A00A8003208A7003108A6000800F80078089A
:10245A000319302A312A452AF31F342A352A452AF4
:10246A007009FA007109FB007209FC007309FD008A
:10247A00FA0A0319FB0A0319FC0A0319FD0A4D2A71
:10248A007308FD007208FC007108FB007008FA006E
:10249A007308720471047004031D542A552A5E2AB3
:1024AA000030F3000030F2000030F1000030F0009C
:1024BA00E22A9630F9006E2A0130F4007408F9070E
:1024CA0001300310FD0CFC0CFB0CFA0CFF3E031D43
:1024DA00662AFE307D05031D732A742A612A902A12
:1024EA000130F4007408F9070130FA0700300318C4
:1024FA000130FB07003003180130FC0700300318D5
:10250A000130FD0701300310FD0CFC0CFB0CFA0C2A
:10251A00FF3E031D882AFF307D05031D952A962A52
:10252A00752AA22A0130F9020130F4000310FA0DCB
:10253A00FB0DFC0DFD0DF40B9B2AFC1BA52AA62AFC
:10254A00AC2A023079020318AB2AAC2A972A7918E6
:10255A00AF2AB02AB82AFF30FA05FF30FB057F30D0
:10256A00FC05FF30FD050310F90C7908F400F501AC
:10257A00F601F70118300310F40DF50DF60DF70DFD
:10258A00FF3E031DC02A7408FA047508FB04760886
:10259A00FC047708FD0478080319D42AD52ADA2A14
:1025AA00F31FD82AD92ADA2AFD177D08F3007C08F6
:1025BA00F2007B08F1007A08F00008000310831289
:1025CA000313280D290DB4003408031DED2AEE2A41
:1025DA00F72A0030A9000030A8000030A700003018
:1025EA00A6009A2B03102C0D2D0DB3003308031DE2
:1025FA00FF2A002B012BEE2AA817FF30A605FF3071
:10260A00A705FF30A8050030A905AC17FF30AA05B9
:10261A00FF30AB05FF30AC050030AD050030B2002D
:10262A000030B1000030B0000030AF007F30B4029B
:10263A00A0303307AE002E08B4022030B3000130B8
:10264A00AE000310AF0DB00DB10DB20DAE0B262BBF
:10265A002D082902031D3B2B2C082802031D3B2BA6
:10266A002B082702031D3B2B2A082602031C3E2B9C
:10267A003F2B4E2B2A08A6022B08031C2B0FA7025E
:10268A002C08031C2C0FA8022D08031C2D0FA902CD
:10269A002F140130AE000310A60DA70DA80DA90D29
:1026AA00AE0B502B0130B302031D5C2B5D2B242B88
:1026BA00B41F602B612B7B2B3408803A9F3E031892
:1026CA00672B682B692BEE2A01300310B20CB10C70
:1026DA00B00CAF0CFF3E031D6A2B0130AE002E0872
:1026EA00B407031D792B7A2B692B922B20303402E5
:1026FA00031C802B812B8D2BEE2A0130AE00031098
:10270A00AF0DB00DB10DB20DAE0B842B0130B4027A
:10271A003408031D912B922B822B3208A900310811
:10272A00A8003008A7002F08A60008008312031388
:10273A00E3006E306302031CA32BA42BB32C3F309F
:10274A00B9000030B8000030B7000030B60064307D
:10275A00AC000030AD006308D400D5015408AE00C7
:10276A005508AF000A168A15A4240A168A1183127C
:10277A0003132C08D60001300310D60DFF3E031DAB
:10278A00C12B0310560D7D3E84000A168A110020C3
:10279A000A168A11D7000A168A1100200A168A1107
:1027AA00D8000A168A1100200A168A11D9000A16B8
:1027BA008A1100200A168A11DA005A08BD0059083F
:1027CA00BC005808BB005708BA000A128A155821DB
:1027DA000A168A11831203133908E2003808E10045
:1027EA003708E0003608DF000A30AC000030AD00E0
:1027FA006308D400D5015408A8005508A90064301C
:10280A00A6000030A7000A168A1568240A168A113B
:10281A00831203132708AF002608AE000A168A158A
:10282A00A4240A168A11831203132C08D600013035
:10283A000310D60DFF3E031D1D2C0310560D593EE5
:10284A0084000A168A1100200A168A11D7000A166D
:10285A008A1100200A168A11D8000A168A11002045
:10286A000A168A11D9000A168A1100200A168A1134
:10287A00DA005A08B9005908B8005808B7005708CA
:10288A00B6006208BD006108BC006008BB005F08B2
:10289A00BA000A128A1558210A168A1183120313DA
:1028AA003908DE003808DD003708DC003608DB00AE
:1028BA000A30A6000030A7006308D400D5015408E6
:1028CA00A8005508A9000A168A1568240A168A114A
:1028DA00831203132608D60001300310D60DFF3EDB
:1028EA00031D722C0310560D353E84000A168A11F8
:1028FA0000200A168A11D7000A168A1100200A1621
:10290A008A11D8000A168A1100200A168A11D900DB
:10291A000A168A1100200A168A11DA005A08B90022
:10292A005908B8005808B7005708B6005E08BD0035
:10293A005D08BC005C08BB005B08BA000A128A1575
:10294A0058210A168A11831203133908D30038084A
:10295A00D2003708D1003608D000A72D0B30630209
:10296A00031CB82CB92C642D3F30B9000030B800D4
:10297A000030B7000030B6000A30AC000030AD00BD
:10298A006308D400D5015408AE005508AF000A16F2
:10299A008A15A4240A168A11831203132C08D60056
:1029AA0001300310D60DFF3E031DD62C0310560D21
:1029BA00593E84000A168A1100200A168A11D70085
:1029CA000A168A1100200A168A11D8000A168A11D4
:1029DA0000200A168A11D9000A168A1100200A163E
:1029EA008A11DA005A08BD005908BC005808BB0011
:1029FA005708BA000A128A1558210A168A11831230
:102A0A0003133908E2003808E1003708E000360805
:102A1A00DF000A30A6000030A7006308D400D50101
:102A2A005408A8005508A9000A168A1568240A1627
:102A3A008A11831203132608D60001300310D60D1B
:102A4A00FF3E031D232D0310560D353E84000A1642
:102A5A008A1100200A168A11D7000A168A11002044
:102A6A000A168A11D8000A168A1100200A168A1133
:102A7A00D9000A168A1100200A168A11DA005A08A1
:102A8A00B9005908B8005808B7005708B6006208D4
:102A9A00BD006108BC006008BB005F08BA000A12EA
:102AAA008A1558210A168A11831203133908D3008A
:102ABA003808D2003708D1003608D000A72D3F3099
:102ACA00B9000030B8000030B7000030B600630823
:102ADA00D40001300310D40DFF3E031D6F2D0310E7
:102AEA00540D353E84000A168A1100200A168A11EE
:102AFA00D5000A168A1100200A168A11D6000A166B
:102B0A008A1100200A168A11D7000A168A11002093
:102B1A000A168A11D8005808BD005708BC00560882
:102B2A00BB005508BA000A128A1558210A168A11DA
:102B3A00831203133908D3003808D2003708D100AA
:102B4A003608D00008008316031323088039B00022
:102B5A002308A8002807B200A21FB42DB52DB62D50
:102B6A00321432080319BA2DBB2DCB2D320A031D9C
:102B7A00BF2DC02DC82D0030A3000030A2000030A8
:102B8A00A1000030A000A217A301D32D0030A3009A
:102B9A000030A2000030A1000030A00027088039D0
:102BAA00B100310830060319DB2DDC2DDD2D30177D
:102BBA002708A8002807B100A61FE42DE52DE62D59
:102BCA00311431080319EA2DEB2DFB2D310A031DAF
:102BDA00EF2DF02DF82D0030A7000030A6000030B0
:102BEA00A5000030A400A617A701032E0030A700F5
:102BFA000030A6000030A5000030A40032083102DF
:102C0A000318082E092E2F2E301F0C2E0D2E112ED2
:102C1A008030A8002808B0063208B3003108B20094
:102C2A003308B1002008B3002408A0003308A40028
:102C3A002108B3002508A1003308A5002208B30023
:102C4A002608A2003308A6002308B3002708A30019
:102C5A003308A700B3013108A800A9012908AB006D
:102C6A0032082802AA00031CAB032B08803AFF0093
:102C7A0080307F02031D432E1A302A02031C462E7F
:102C8A00472E7E2E831603132308220421042004D0
:102C9A00031D502E522E0130532E0030B300003047
:102CAA00A3000030A2000030A1000030A0003108CB
:102CBA00B200862E331C622E632E6A2E3308A800B9
:102CCA000310280C0138B3006C2E0310B30C201C1F
:102CDA006F2E702E712EB3170130A800230DA30C8E
:102CEA00A20CA10CA00CA80B732E0130A800280876
:102CFA00B2078316031331083202031C852E862E6F
:102D0A005F2E301B892E8A2ED32E3208031D8E2E5B
:102D1A008F2E982E0030A3000030A2000030A100B0
:102D2A000030A000FF2F2408A0072508031103186C
:102D3A00013E0319A12EA107260803110318013E1B
:102D4A000319A82EA207270803110318013E031925
:102D5A00AF2EA307231CB22EB32E872F331CB62EF9
:102D6A00B72EBE2E3308A8000310280C0138B30072
:102D7A00C02E0310B30C201CC32EC42EC52EB317AD
:102D8A000130A800230DA30CA20CA10CA00CA80BC7
:102D9A00C72E0130A8002808B207872F2308803AD7
:102DAA00FF002708803A7F02031DE52E260822022B
:102DBA00031DE52E25082102031DE52E2408200205
:102DCA000318E82EE92E412FFF30A800FF30A90092
:102DDA00FF30AA00FF30AB002408AC002508AD0084
:102DEA002608AE002708AF002008AC022108031C01
:102DFA00210F002F012FAD022208031C220F062FDC
:102E0A00072FAE022308031C230F0C2F0D2FAF022E
:102E1A002C08A8072D0803182D0F142F152FA90702
:102E2A002E0803182E0F1A2F1B2FAA072F08031874
:102E3A002F0AAB072B08A3002A08A2002908A10021
:102E4A002808A0008030A8002808B006B309B30AF1
:102E5A003308031D312F322F4F2F0130A0070030C6
:102E6A0003180130A107003003180130A20700300F
:102E7A0003180130A3074F2F2408A0022508031CBA
:102E8A00250FA1022608031C260FA2022708031CED
:102E9A00270FA3022308220421042004031D562F0E
:102EAA00572F832F3308031D5B2F5C2F832F00308E
:102EBA00A3000030A2000030A1000030A000FF2FC4
:102ECA000130A8000310A00DA10DA20DA30DA80B9F
:102EDA00672FB31F712F722F732F2014331C762F75
:102EEA00772F7A2F0314B30D7C2F0310B30D3208FA
:102EFA000319802F812F832F0130B202A21F862F40
:102F0A00872F652FB101B31F8B2F8C2F9A2F330870
:102F1A007F390319912F922F952FB101B10A9A2F58
:102F2A00201C982F992F9A2F922F310803199E2F20
:102F3A009F2FD32F0130A007003003180130A107BB
:102F4A00003003180130A207003003180130A3072C
:102F5A00231CB02FB12FD32F2008A8002108A900C5
:102F6A002208AA002308AB000130AC002B0DAB0CE1
:102F7A00AA0CA90CA80CAC0BBB2F2B08A3002A087F
:102F8A00A2002908A1002808A000320A0319CE2F9E
:102F9A00CF2FD32F0130A8002808B207320A03190D
:102FAA00D72FD82FDD2F3208031DDC2FDD2FEB2F73
:102FBA000030A3000030A2000030A1000030A000C1
:102FCA003208031DE92FEA2FEB2FB001321CEE2F36
:102FDA00EF2FF12FA217F52F7F30A8002808A2059E
:102FEA003208A8000310280CA300B01FFD2FFE2FE3
:062FFA00FF2FA3170800E1
:1037140083120313A7000713270888000A128A15C7
:1037240003200A168A15080083120313A70007173B
:10373400270888000A128A1503200A168A15080029
:103744008312031329082804270426040319AB2B26
:10375400AC2BAE2B8030A906080001300A168A155E
:103764008A230A168A15063083120313A9002F3000
:10377400A800A80BBB2BA90BBB2BC02B08008312E2
:10378400031387130713880183160313871307137F
:10379400880138300A168A158A230A168A150C30CD
:1037A4000A168A158A230A168A1501300A168A15FA
:1037B4008A230A168A1506300A168A158A230A16D7
:1037C4008A150800803083160313BB063F08A30044
:1037D4003E08A2003D08A1003C08A0003B08A70049
:1037E4003A08A6003908A5003808A4000A168A1168
:1037F400A8250A168A15831603132308BB0022087A
:10380400BA002108B9002008B80008008312031385
:10381400AA01AB01261C0F2C102C162C2808AA0771
:103824000318AB0A2908AB0701300310A80DA90D32
:10383400FF3E031D172C01300310A70CA60CFF3EFE
:10384400031D1E2C26082704031D292C2A2C0C2CAE
:103854002B08A7002A08A6000800033083160317C4
:1038640088008901FF30831603138500FF3086002A
:1038740087018801890181133F3095008312031366
:103884008801890187017030831603138F040F1494
:103894009F131F129F12831203131F083F394038CE
:1038A4009F00C3309F051F14203083120313A6000A
:1038B400A60B5A2C0000831203130C138316031354
:1038C4000C178B110B140B178B170800831203139F
:1038D4002608270403196F2C702C9F2CAB01AB0A0C
:1038E4007E2C01300310A60DA70DFF3E031D742C82
:1038F4000130AA002A08AB07A71F812C822C732C45
:1039040027082902031D882C26082802031C8B2C57
:103914008C2C922C2608A8022708031CA903A902B0
:1039240001300310A70CA60CFF3E031D932C01309D
:10393400AB02031D9E2C9F2C822C2908A70028086B
:10394400A600080083120313B101B2012C082D0450
:103954000319AD2CAE2CE52CB301B30ABC2C0130F9
:103964000310AC0DAD0DFF3E031DB22C0130B000B1
:103974003008B307AD1FBF2CC02CB12C013003108D
:10398400B10DB20DFF3E031DC12C2D082F02031DE6
:10399400CD2C2C082E02031CD02CD12CD82C2C0876
:1039A400AE022D08031CAF03AF0231140130031023
:1039B400AD0CAC0CFF3E031DD92C0130B302031D2A
:1039C400E42CE52CC02C3208AD003108AC00080012
:1039D4000030831203132605AE0000302705AF0024
:1039E40080302805B0007F302905B100310830044B
:1039F4002F042E04031DFF2C002D082D0030A900D8
:103A04000030A8000030A7000030A60000302A05CE
:103A1400AE0000302B05AF0080302C05B0007F30A5
:103A24002D05B100310830042F042E04031D1B2D75
:103A34001C2D242D0030AD000030AC000030AB0054
:103A44000030AA002D082906031D322D2C08280653
:103A5400031D322D2B082706031D322D2A082606A6
:103A64000319352D362D382D0310392D0314080074
:103A74008312031329082804270426040319432D59
:103A8400442D872DAF01AF0A542D0130AE00031031
:103A9400A60DA70DA80DA90DAE0B492D0130AE0042
:103AA4002E08AF07A91F572D582D472D29082D0281
:103AB400031D662D28082C02031D662D27082B02E2
:103AC400031D662D26082A02031C692D6A2D782DF4
:103AD4002608AA022708031C270FAB022808031C88
:103AE400280FAC022908031C290FAD020130031072
:103AF400A90CA80CA70CA60CFF3E031D792D0130C0
:103B0400AF02031D862D872D582D2D08A9002C08E2
:103B1400A8002B08A7002A08A60008008312031394
:103B2400AC01A91F962D972D9E2DA809A909A80AB5
:103B34000319A90AAC01AC0AA71FA12DA22DA72D18
:103B4400A609A709A60A0319A70A26082704031920
:103B5400AC2DAD2DDC2DAB01AB0ABB2D0130031018
:103B6400A60DA70DFF3E031DB12D0130AA002A08A2
:103B7400AB07A71FBE2DBF2DB02D27082902031D9B
:103B8400C52D26082802031CC82DC92DCF2D2608B3
:103B9400A8022708031CA903A90201300310A70CDB
:103BA400A60CFF3E031DD02D0130AB02031DDB2DFF
:103BB400DC2DBF2D2C080319E02DE12DE62DA809DD
:103BC400A909A80A0319A90A2908A7002808A60010
:103BD40008000C1FEE2DEF2D492E1F0CA000200C09
:103BE4000F39013A031DF72DF82D0F2E1E08A000E2
:103BF400A1012008F0002108F1000530F200003096
:103C0400F3000A168A1550260A168A1571088312BB
:103C14000313E9007008E800462E1F0CA000200CD6
:103C24000F39003A031D172E182E362E1E08A00039
:103C3400A101A201A3012308F3002208F200210834
:103C4400F1002008F00000300A168A112B220A160F
:103C54008A15730883160317B1007208B00071083F
:103C6400AF007008AE00462E1F0CA000200C0F39C8
:103C7400023A031D3E2E3F2E462E1E08A000A1012F
:103C84002008E4002108E500831203130C1325081F
:103C94008A00240E8300FE0E7E0E0900F601F11F39
:103CA400542E552E5C2EF009F109F00A0319F10A7D
:103CB400F601F60AF31F5F2E602E692EF209F3094E
:103CC400F20A0319F30A0130F4007408F606F70146
:103CD400F801700871040319702E712EA82EF501D5
:103CE400F50A7F2E01300310F00DF10DFF3E031D88
:103CF400752E0130F4007408F507F11F822E832E0F
:103D0400742E01300310F70DF80DFF3E031D842EB1
:103D140071087302031D902E70087202031C932E07
:103D2400942E9B2E7008F2027108031CF303F30215
:103D3400771401300310F10CF00CFF3E031D9C2E90
:103D44000130F502031DA72EA82E832E7608031931
:103D5400AC2EAD2EB22EF709F809F70A0319F80AAA
:103D64007808F1007708F00008000030831203138C
:103D7400B2000030B1000030B0000030AF002908BC
:103D84002804270426040319C82EC92E162FB301AC
:103D9400B30AD92E0130AE000310A60DA70DA80D4D
:103DA400A90DAE0BCE2E0130AE002E08B307A91F0D
:103DB400DC2EDD2ECC2E0130AE000310AF0DB00D85
:103DC400B10DB20DAE0BDF2E29082D02031DF42E0A
:103DD40028082C02031DF42E27082B02031DF42EA1
:103DE40026082A02031CF72EF82E072F2608AA02FB
:103DF4002708031C270FAB022808031C280FAC025A
:103E04002908031C290FAD022F1401300310A90C3B
:103E1400A80CA70CA60CFF3E031D082F0130B3020B
:103E2400031D152F162FDD2E3208A9003108A80016
:103E34003008A7002F08A600080083120313B3015B
:103E4400AE1F252F262F2D2FAD09AE09AD0A03195C
:103E5400AE0AB301B30AB01F302F312F3A2FAF0986
:103E6400B009AF0A0319B00A0130B1003108B30632
:103E7400B401B5012D082E040319412F422F792FC7
:103E8400B201B20A502F01300310AD0DAE0DFF3E4A
:103E9400031D462F0130B1003108B207AE1F532F66
:103EA400542F452F01300310B40DB50DFF3E031DF3
:103EB400552F2E083002031D612F2D082F02031CDD
:103EC400642F652F6C2F2D08AF022E08031CB0033E
:103ED400B002341401300310AE0CAD0CFF3E031DD0
:103EE4006D2F0130B202031D782F792F542F330820
:103EF40003197D2F7E2F832FB409B509B40A031942
:103F0400B50A3508AE003408AD0008000310831666
:103F14000313220D230DA9002908031D922F932FAB
:103F24009C2F0030A3000030A2000030A10000301C
:103F3400A000FF2F2008A4002108A5002208A60045
:103F44002308A7001F300310A70CA60CA50CA40C73
:103F5400FF3E031DA52F2408A800A217FF30A005CB
:103F6400FF30A105FF30A2050030A3059630A90259
:103F7400A91FBD2FBE2FD82F2908803A973E0318BA
:103F8400C42FC52FC62F932F01300310A30CA20CEE
:103F9400A10CA00CFF3E031DC72F0130A400240870
:103FA400A907031DD62FD72FC62FEF2F20302902A4
:103FB400031CDD2FDE2FEA2F932F0130A400031002
:103FC400A00DA10DA20DA30DA40BE12F0130A90298
:103FD4002908031DEE2FEF2FDF2F28080319F32FD5
:103FE400F42FFF2FA009A109A209A309A00A03190C
:103FF400A10A0319A20A0319A30A0800FF3FFF3FFD
:04400400FF3FFF3F3C
:04400E00D520FF3F7B
:00000001FF
