:060000000A128A110E280D
:10000800FE00030E83120313A4000A08A5000A16B3
:100018008A15822D0A128A11112883120313E50109
:10002800E601E701E801E90183160313E201E301B0
:1000380083160317A801A901AA01AB01AC01AD0100
:1000480083010A128A11E82E83160313D500BD30E6
:10005800CA00D32E25305E060319332834283E28DB
:10006800550884005E08831780000130C1004108EC
:10007800D507D32ECB01CC0143284C155D28013080
:10008800BC07FF303C0784000A168A1500200A12B4
:100098008A11DE00C100C2014208003A031955283E
:1000A800D32E4108003A0319E32E663A0319412872
:1000B800D32E00304B05C10007304C05C200410863
:1000C8004204031968286928C12E0630CD00003083
:1000D800CE004A08840083130008DA00840A000866
:1000E800DB00840A0008DC00840A0008DD00043014
:1000F800C1004108CA075D0883120313A9008316CB
:1001080003135C0883120313A800831603135B0808
:1001180083120313A700831603135A0883120313C9
:10012800A6000030AD000030AC000030AB0000305D
:10013800AA000A168A15ED250A128A110318A5289D
:10014800A628DF28831603135D0883120313A9006A
:10015800831603135C0883120313A8008316031382
:100168005B0883120313A700831603135A0883122C
:100178000313A6000A128A1503200A128A11831291
:100188000313290883160313DD00831203132808B9
:1001980083160313DC008312031327088316031343
:1001A800DB0083120313260883160313DA000330D7
:1001B800CB040030CC0483160313D301D4015D08AB
:1001C80083120313A900831603135C088312031315
:1001D800A800831603135B0883120313A700831672
:1001E80003135A0883120313A6000030AD00003031
:1001F800AC000030AB000030AA000A168A110120BA
:100208000A128A11031809290A29362A03108316A3
:1002180003135C0D5D0D823ED300FF3003180030E0
:10022800D400FF30D3070318D40AFF30D4070330B3
:1002380083120313A6000030A70083160313540883
:1002480083120313A900831603135308831203139D
:10025800A8000A168A15D1210A128A1183120313DB
:10026800270883160313D400831203132608831662
:100278000313D3000A3083120313AD000030AE001D
:1002880083160313540883120313B0008316031351
:10029800530883120313AF000A168A1519250A1288
:1002A8008A11831203132E0883160313D4008312B2
:1002B80003132D0883160313D300D41F642965295B
:1002C8006B29FF30D3070318D40AFF30D407530330
:1002D800FF3A0A128A159D240A128A1183120313FF
:1002E800530883160313D900831203135208831685
:1002F8000313D80083120313510883160313D7007E
:1003080083120313500883160313D6005D08831263
:100318000313B900831603135C0883120313B80090
:10032800831603135B0883120313B70083160313A2
:100338005A0883120313B60083160313590883124D
:100348000313BD0083160313580883120313BC005C
:1003580083160313570883120313BB008316031372
:10036800560883120313BA000A128A1558210A1272
:100378008A1183120313390883160313D9008312D1
:100388000313380883160313D8008312031337089E
:1003980083160313D7008312031336088316031337
:1003A800D600590883120313A900831603135808AB
:1003B80083120313A8008316031357088312031329
:1003C800A70083160313560883120313A6003F30B1
:1003D800AD008030AC000030AB000030AA000A1637
:1003E8008A15ED250A128A110318FB29FC29052A0A
:1003F800FF3083160313D3070318D40AFF30D4073A
:10040800362A83160313590883120313A900831687
:100418000313580883120313A800831603135708FD
:1004280083120313A70083160313560883120313BA
:10043800A6004130AD002030AC000030AB000030E9
:10044800AA000A168A15ED250A128A11031C2D2AFC
:100458002E2A362A013083160313D3070318D40A29
:100468000030D40706300A168A1109210A128A11A7
:1004780083120313530883160313A3008312031371
:10048800520883160313A20083120313510883161C
:100498000313A10083120313500883160313A0004B
:1004A8005D08A7005C08A6005B08A5005A08A40020
:1004B8000A168A1116230A128A11831603132308AF
:1004C800DD002208DC002108DB002008DA005408DF
:1004D800803AFF0080307F02031D742A0A305302DD
:1004E8000318772A782AC72A831603135D0883120C
:1004F8000313A900831603135C0883120313A800CF
:10050800831603135B0883120313A70083160313D0
:100518005A0883120313A6000030AD000030AC0067
:100528000030AB000030AA000A168A1101200A1216
:100538008A110318A02AA12A732B831603135D08B6
:10054800A3005C08A2005B08A1005A08A0000A12D8
:100558008A1510200A128A1183160313230822040D
:1005680021042004031DB92ABA2A732B5408803A9F
:10057800FF0080307F02031DC32A02305302031C90
:10058800C62AC72A732B8316031359088312031329
:10059800A90083160313580883120313A8008316AF
:1005A8000313570883120313A7008316031356086F
:1005B80083120313A6004030AD008930AC007030C0
:1005C800AB005F30AA000A168A15ED250A128A11B7
:1005D8000318EF2AF02AF92AF73083160313D307F2
:1005E8000318D40AFF30D407012BF83083160313FD
:1005F800D3070318D40AFF30D40753080A128A1500
:100608009D240A128A1183120313530883160313B5
:10061800D90083120313520883160313D8008312D8
:100628000313510883160313D700831203135008CA
:1006380083160313D6005D0883120313A9008316DB
:1006480003135C0883120313A800831603135B08C3
:1006580083120313A700831603135A088312031384
:10066800A60083160313590883120313AD008316DB
:100678000313580883120313AC0083160313570897
:1006880083120313AB008316031356088312031354
:10069800AA000A168A1151200A128A11831203131A
:1006A800290883160313D20083120313280883161C
:1006B8000313D10083120313270883160313D000F2
:1006C80083120313260883160313CF000030DD00BE
:1006D8000030DC000030DB000030DA00D92B831654
:1006E80003135D08A3005C08A2005B08A1005A0878
:1006F800A0000A128A1510200A128A118316031301
:100708002308D2002208D1002108D0002008CF00F9
:10071800520883120313A900831603135108831286
:100728000313A80083160313500883120313A700AA
:10073800831603134F0883120313A60000300A120E
:100748008A159E200A128A11831203132908831618
:100758000313B70083120313280883160313B60084
:1007680083120313270883160313B5008312031398
:10077800260883160313B4005D08BB005C08BA00A2
:100788005B08B9005A08B8000A168A1588210A12A7
:100798008A11831603133708DD003608DC00350894
:1007A800DB003408DA00D301D401DE01DE0A5E087A
:1007B800C10001300310C10DFF3E031DDE2B0310E5
:1007C800410D693E84000A168A1500200A128A1112
:1007D800C2000A168A1500200A128A11C3000A16D6
:1007E8008A1500200A128A11C4000A168A150020E8
:1007F8000A128A11C50045085202031D0D2C44082F
:100808005102031D0D2C43085002031D0D2C4208F4
:100818004F020318102C112C122C1C2C0130C10073
:100828004108DE070A305E06031D1B2C1C2CDB2B3F
:1008380003304B05C10000304C05C200410842049A
:100848000319272C282CD62C550884002D30831703
:1008580080000130C1004108D507D62C5E08C100D0
:1008680001300310C10DFF3E031D352C0310410D4F
:10087800693E84000A168A1500200A128A1183121A
:100888000313A6000A168A1500200A128A11A70067
:100898000A168A1500200A128A11A8000A168A1553
:1008A80000200A128A11A900831603135208831222
:1008B8000313AD0083160313510883120313AC000E
:1008C80083160313500883120313AB008316031314
:1008D8004F0883120313AA000A168A15B1240A12B4
:1008E8008A1183120313290883160313D90083126C
:1008F8000313280883160313D80083120313270849
:1009080083160313D70083120313260883160313D1
:10091800D600003083120313A9000030A80000306D
:10092800A7000A30A600831603135908831203137D
:10093800AD0083160313580883120313AC00831603
:100948000313570883120313AB00831603135608C7
:1009580083120313AA000A168A1537230A128A116A
:1009680083120313290883160313D9008312031370
:10097800280883160313D800831203132708831645
:100988000313D70083120313260883160313D60014
:10099800550884005608303E831780000130C10096
:1009A8004108D5070130DE025E0A031DDC2CDD2C70
:1009B800322CEF2C8316031355088400303083172C
:1009C80080000130C1004108D507FF30D307031864
:1009D800D40AFF30D4075408803AFF0080307F02E1
:1009E800031DF82C013053020318FB2CFC2CDE2CC1
:1009F800831603134E08803AFF0080307F02031DE0
:100A0800072D09304D02031C0A2D0B2D102D08301F
:100A180083160313DE00142D831603134D08DE001E
:100A28005E08C100C2014108CD024208031CCE0382
:100A3800CE025E080319212D222D2B2D5508840086
:100A48002E30831780000130C1004108D5075E08A9
:100A58000A128A159D240A128A1183120313530855
:100A680083160313C9008312031352088316031352
:100A7800C80083120313510883160313C700831297
:100A88000313500883160313C6004908831203137F
:100A9800BD0083160313480883120313BC00831692
:100AA8000313470883120313BB0083160313460876
:100AB80083120313BA00831603135D08831203130A
:100AC800B900831603135C0883120313B800831656
:100AD80003135B0883120313B700831603135A0822
:100AE80083120313B6000A128A1558210A128A11B2
:100AF80083120313390883160313A3008312031305
:100B0800380883160313A2008312031337088316C9
:100B18000313A10083120313360883160313A000DE
:100B28000A128A1510200A128A1183160313230841
:100B3800D2002208D1002108D0002008CF00A32E1F
:100B48005E08C10001300310C10DFF3E031DA72D33
:100B58000310410D693E84000A168A1500200A1206
:100B68008A1183120313A6000A168A1500200A1296
:100B78008A11A7000A168A1500200A128A11A800ED
:100B88000A168A1500200A128A11A900831603136F
:100B9800520883120313AD008316031351088312FE
:100BA8000313AC0083160313500883120313AB001E
:100BB800831603134F0883120313AA000A168A1513
:100BC800B1240A128A118312031329088316031306
:100BD800D90083120313280883160313D80083123D
:100BE8000313270883160313D70083120313260859
:100BF80083160313D600003083120313A9000030B4
:100C0800A8000030A7000A30A6008316031359086D
:100C180083120313AD0083160313580883120313BA
:100C2800AC0083160313570883120313AB00831613
:100C38000313560883120313AA000A168A153723CA
:100C48000A128A1183120313290883160313D90081
:100C580083120313280883160313D800831203137F
:100C6800270883160313D700831203132608831655
:100C78000313D600550884005608303E83178000B9
:100C88000130C1004108D5075E08C10001300310DA
:100C9800C10DFF3E031D4B2E0310410D693E84001C
:100CA8000A168A1500200A128A1183120313A60055
:100CB8000A168A1500200A128A11A7000A168A1530
:100CC80000200A128A11A8000A168A1500200A12A2
:100CD8008A11A90083160313520883120313AD0067
:100CE80083160313510883120313AC0083160313EE
:100CF800500883120313AB00831603134F088312A3
:100D08000313AA000A168A1537230A128A118312B6
:100D18000313290883160313D20083120313280828
:100D280083160313D10083120313270883160313B2
:100D3800D00083120313260883160313CF00013053
:100D4800DE025E0A031DA92EAA2EA42DBA2E55086E
:100D580084003030831780000130C1004108D50776
:100D6800FF30CD070318CE0AFF30CE074D084E04DA
:100D7800031DBF2EC02EAB2ED32E03304B05C10052
:100D880000304C05C200410842040319CC2ECD2E78
:100D9800D32E550884002D30831780003928013060
:100DA800BC07FF303C0784000A168A1500200A1287
:100DB8008A11DE005E08031DE22EE32E2E28550858
:100DC80084008317800108000A168A15F8210A1280
:100DD8008A11831203139F1483160317AC01AD0104
:100DE8000A168A15E8230A128A11831203139F1818
:100DF800FE2EFF2E2C2F83160317AC01AD01831690
:100E080003172C0883160313DF00DF0DDF0D831291
:100E180003131F08831603135F06C3395F06831283
:100E280003139F009F14013083160317AC070318A0
:100E3800AD0A0030AD072D08803AFF0080307F02F0
:100E4800031D282F03302C02031C2B2F2C2F032FBC
:100E58000A168A153F210A128A1143308312031396
:100E6800D3007F30D2000030D1000030D0004030B5
:100E7800B900A030B8000030B7000030B6008316C3
:100E880003172B0883120313BD00831603172A08C0
:100E980083120313BC008316031729088312031354
:100EA800BB0083160317280883120313BA000A121B
:100EB8008A1558210A128A11831203133908D70098
:100EC8003808D6003708D5003608D4000A168A1123
:100ED8006E250A128A118312031353088316031707
:100EE800A70083120313520883160317A600831260
:100EF8000313510883160317A50083120313500820
:100F080083160317A400913083160313BC008316BD
:100F18000317270883160313C00083160317260830
:100F280083160313BF0083160317250883160313BC
:100F3800BE0083160317240883160313BD009030E0
:100F48000A128A1128200A128A1183120313AA018D
:100F5800AA0A01300A168A15EB220A128A11903061
:100F68000A168A15AC210A128A1115308316031342
:100F7800E1004B30E000BD30DF00DF0BC12FE00B9C
:100F8800C12FE10BC12FC82FF92E0A128A110E2882
:100F980083120313AE00AA01AB012608A800A90119
:100FA8002808AC002908AD002E1CDB2FDC2FE22F0F
:100FB8002C08AA070318AB0A2D08AB070130031049
:100FC800AC0DAD0DFF3E031DE32F0310AE0C2E0834
:100FD800031DEF2FF02FD82F2B08A7002A08A600F3
:020FE8000800FF
:1010060083120313290828042704260403190C282D
:101016000D280F288030A906080003108316031335
:10102600220D230D83120313E4006408031D1C28FC
:101036001D282828003083160313A3000030A200C1
:101046000030A1000030A0009D288316031320085D
:10105600A4002108A5002208A6002308A7001F3027
:101066000310A70CA60CA50CA40CFF3E031D3328E9
:10107600240883120313E30083160313A217FF3019
:10108600A005FF30A105FF30A2050030A30596306C
:1010960083120313E402E41F5128522870286408BF
:1010A600803A973E0318582859285A281D28013097
:1010B600031083160313A30CA20CA10CA00CFF3E75
:1010C600031D5B280130A400240883120313E407E0
:1010D600031D6E286F285A288B2820306402031CB3
:1010E6007528762886281D28013083160313A40048
:1010F6000310A00DA10DA20DA30DA40B7B2801309A
:1011060083120313E4026408031D8A288B287728B8
:10111600630803198F2890289D2883160313A009B6
:10112600A109A209A309A00A0319A10A0319A20A7F
:101136000319A30A080083120313AE002E0803192D
:10114600A528A628BA28A91FA928AA28BA282609A0
:10115600B0002709B1002809B2002909B300B00A76
:101166000319B10A0319B20A0319B30AC2282908D6
:10117600B3002808B2002708B1002608B0002908E5
:10118600280427042604031DC928CA28D3280030AA
:10119600A9000030A8000030A7000030A60057299B
:1011A6009630AF00E3280130AA002A08AF070130C5
:1011B6000310B30CB20CB10CB00CFF3E031DDB28C0
:1011C600FE303305031DE828E928D6280529013015
:1011D600AA002A08AF070130B00700300318013013
:1011E600B107003003180130B20700300318013090
:1011F600B30701300310B30CB20CB10CB00CFF3EB8
:10120600031DFD28FF303305031D0A290B29EA2893
:1012160017290130AF020130AA000310B00DB10D3D
:10122600B20DB30DAA0B1029B21B1A291B292129AD
:1012360002302F020318202921290C292F182429CE
:1012460025292D29FF30B005FF30B1057F30B205C5
:10125600FF30B3050310AF0C2F08AA00AB01AC0199
:10126600AD0118300310AA0DAB0DAC0DAD0DFF3E50
:10127600031D35292A08B0042B08B1042C08B20432
:101286002D08B3042E08031949294A294F29A91FF5
:101296004D294E294F29B3173308A9003208A80053
:1012A6003108A7003008A600080083120313390886
:1012B6008039C3003908BE003E07C900B81F64293B
:1012C600652966294914490803196A296B297A2967
:1012D600490A031D6F29702978290030B9000030AA
:1012E600B8000030B7000030B600B81782290030C9
:1012F600B9000030B8000030B7000030B6003D0835
:101306008039BE003E08C3063D08BE003E07C80041
:10131600BC1F8E298F29902948144808031994293F
:101326009529A429480A031D99299A29A22900303A
:10133600BD000030BC000030BB000030BA00BC1756
:10134600AC290030BD000030BC000030BB000030CE
:10135600BA0048080319B029B129B6294908031D5E
:10136600B529B629BF290030B9000030B8000030D1
:10137600B7000030B6009C2C3608A6003C080A12BE
:101386008A11CC270A128A15831203132708CF0065
:101396002608CE004E08BE00BF01C001C1014108AB
:1013A600C7004008C6003F08C5003E08C4004F08F5
:1013B600BE00BF01C001C1014108CD004008CC00FC
:1013C6003F08CB003E08CA003708A6003B080A12B1
:1013D6008A11CC270A128A15831203132708CF0015
:1013E6002608CE004E08BE00BF01C001C1013E085E
:1013F600C4073F0803110318013E0319032AC50752
:10140600400803110318013E03190A2AC6074108BA
:1014160003110318013E0319112AC7074F08BE001E
:10142600BF01C001C1013E08CA073F0803110318E6
:10143600013E03191F2ACB07400803110318013E7A
:101446000319262ACC07410803110318013E031984
:101456002D2ACD073808A6003A080A128A11CC2789
:101466000A128A15831203132708CF002608CE0016
:101476004E08BE00BF01C001C1013E08C4073F08B7
:1014860003110318013E0319492AC5074008031131
:101496000318013E0319502AC60741080311031811
:1014A600013E0319572AC7074F08BE00BF01C001F6
:1014B600C1013E08CA073F0803110318013E03197C
:1014C600652ACB07400803110318013E03196C2A4D
:1014D600CC07410803110318013E0319732ACD07EF
:1014E6000830BE000310C40DC50DC60DC70DBE0BDA
:1014F600752A3708A6003A080A128A11CC270A125A
:101506008A15831203132708CF002608CE004E083B
:10151600BE004F08BF00C001C1013E08C4073F0816
:1015260003110318013E0319992AC5074008031140
:101536000318013E0319A02AC60741080311031820
:10154600013E0319A72AC7073608A6003B080A1258
:101556008A11CC270A128A15831203132708CF0093
:101566002608CE004E08BE004F08BF00C001C101CC
:101576003E08C4073F0803110318013E0319C42A95
:10158600C507400803110318013E0319CB2AC607F5
:10159600410803110318013E0319D22AC707083070
:1015A600BE000310C40DC50DC60DC70DBE0BD42A53
:1015B6003608A6003A080A128A11CC270A128A159A
:1015C600831203132708CF002608CE004E08BE005C
:1015D6004F08BF00C001C1013E08C4073F08031100
:1015E6000318013E0319F82AC5074008031103181A
:1015F600013E0319FF2AC607410803110318013EDD
:101606000319062BC7073708A6003C080A128A11D9
:10161600CC270A128A15831203132708CF0026083F
:10162600CE004E08BE004F08BF00C001C1013E08F3
:10163600CA073F0803110318013E0319232BCB07E2
:10164600400803110318013E03192A2BCC07410851
:1016560003110318013E0319312BCD073808A600E4
:101666003B080A128A11CC270A128A158312031321
:101676002708CF002608CE004E08BE004F08BF0040
:10168600C001C1013E08CA073F0803110318013E05
:1016960003194E2BCB07400803110318013E03190B
:1016A600552BCC07410803110318013E03195C2B87
:1016B600CD073808A6003C080A128A11CC270A1260
:1016C6008A15831203132708CF002608CE004E087A
:1016D600BE004F08BF00C001C10108300310BE0D97
:1016E600BF0DC00DC10DFF3E031D712B3E08CA077D
:1016F6003F0803110318013E0319822BCB0740084C
:1017060003110318013E0319892BCC074108031165
:101716000318013E0319902BCD074408BE00450867
:10172600BF004608C0004708C10018300310C10CAE
:10173600C00CBF0CBE0CFF3E031D992B3E08CA070A
:101746003F0803110318013E0319AA2BCB074008D3
:1017560003110318013E0319B12BCC0741080311ED
:101766000318013E0319B82BCD070830BE0003103D
:10177600C40DC50DC60DC70DBE0BBA2B49084807CB
:10178600BE00BF01BF0D3E08823ECE003F080318D3
:10179600013EFF3ECF00EC2B0130BE000310CA0D08
:1017A600CB0DCC0DCD0DBE0BD12BC71FDB2BDC2BF0
:1017B600DD2B4A140130BE000310C40DC50DC60D45
:1017C600C70DBE0BDF2BFF30CE070318CF0AFF3045
:1017D600CF07CC1FEF2BF02BCF2BC801C71FF42B45
:1017E600F52B112CFF304405BE00FF304505BF0028
:1017F600FF304605C0007F304705C1004108400460
:101806003F043E040319082C092C0C2CC801C80AF5
:10181600112C4A1C0F2C102C112C092C48080319CA
:10182600152C162C472C0130CA070030031801303E
:10183600CB07003003180130CC0700300318013005
:10184600CD074D1C272C282C472C4A08BE004B08D8
:10185600BF004C08C0004D08C1000130C200410D58
:10186600C10CC00CBF0CBE0CC20B322C4108CD0003
:101876004008CC003F08CB003E08CA000130CE0726
:101886000318CF0A0030CF074F08803AFF00803098
:101896007F02031D502CFF304E02031C532C542C88
:1018A6005F2C7F3083120313CD008030CC000030D4
:1018B600CB000030CA00902C831203134F08803AE5
:1018C600FF0080307F02031D6A2C01304E02031890
:1018D6006D2C6E2C7A2C003083120313CD00003051
:1018E600CC000030CB000030CA00C301902C83121C
:1018F60003134E08C900FF30CA05FF30CB057F3001
:10190600CC050030CD05491C892C8A2C8B2CCC1794
:101916004908BE0003103E0CCD004308BE003E0839
:10192600CD044D08B9004C08B8004B08B7004A086A
:10193600B600080083120313E200E21FA32CA42CB6
:10194600532EE209E20A6208803A123E031CAC2CCE
:10195600AD2C972D0A30AD000030AE006208A8000D
:10196600A901A81BA9036430A6000030A7000A1627
:101976008A158D230A128A15831203132708B000CD
:101986002608AF000A168A1519250A128A15831227
:1019960003132D08D40001300310D40DFF3E031DA0
:1019A600CF2C0310540D593E84000A168A150020C8
:1019B6000A128A15D5000A168A1500200A128A15F7
:1019C600D6000A168A1500200A128A15D7000A16AA
:1019D6008A1500200A128A15D8005808B900570837
:1019E600B8005608B7005508B6006430AD000030A0
:1019F600AE006208AF00B001AF1BB0030A168A152D
:101A060019250A128A15831203132D08D9000130ED
:101A16000310D90DFF3E031D0B2D0310590D7D3EFE
:101A260084000A168A1500200A128A15DA000A1698
:101A36008A1500200A128A15DB000A168A1500206C
:101A46000A128A15DC000A168A1500200A128A155F
:101A5600DD005D08BD005C08BC005B08BB005A08E1
:101A6600BA000A128A1558210A128A15831203131C
:101A76003908E1003808E0003708DF003608DE00E4
:101A86000A30A6000030A7006208A800A901A81B1A
:101A9600A9030A168A158D230A128A1583120313BF
:101AA6002608D40001300310D40DFF3E031D562D29
:101AB6000310540D353E84000A168A1500200A12BA
:101AC6008A15D5000A168A1500200A128A15D6002C
:101AD6000A168A1500200A128A15D7000A168A15D0
:101AE60000200A128A15D8005808B9005708B8000D
:101AF6005608B7005508B6006108BD006008BC006E
:101B06005F08BB005E08BA000A128A1558210A123D
:101B16008A15831203133908D3003808D200370810
:101B2600D1003608D000FF2F6208803A753E031CAC
:101B36009D2D9E2D262E0A30A6000030A700620895
:101B4600A800A901A81BA9030A168A158D230A1243
:101B56008A15831203132608D40001300310D40D0E
:101B6600FF3E031DB12D0310540D353E84000A16A9
:101B76008A1500200A128A15D5000A168A15002031
:101B86000A128A15D6000A168A1500200A128A1524
:101B9600D7000A168A1500200A128A15D800580896
:101BA600B9005708B8005608B7005508B6000A30FD
:101BB600AD000030AE006208AF00B001AF1BB0034D
:101BC6000A168A1519250A128A15831203132D0877
:101BD600D90001300310D90DFF3E031DED2D031072
:101BE600590D593E84000A168A1500200A128A15D4
:101BF600DA000A168A1500200A128A15DB000A1670
:101C06008A1500200A128A15DC000A168A15002099
:101C16000A128A15DD005D08BD005C08BC005B0881
:101C2600BB005A08BA000A128A1558210A128A15E8
:101C3600831203133908D3003808D2003708D100BD
:101C46003608D000FF2F6208D40001300310D40DEF
:101C5600FF3E031D292E0310540D353E84000A163F
:101C66008A1500200A128A15D5000A168A15002040
:101C76000A128A15D6000A168A1500200A128A1533
:101C8600D7000A168A1500200A128A15D8005808A5
:101C9600D3005708D2005608D1005508D000FF2FB0
:101CA6006208803A123E031C592E5A2E442F0A30DF
:101CB600AD000030AE006208A800A901A81BA90368
:101CC6006430A6000030A7000A168A158D230A1272
:101CD6008A15831203132708B0002608AF000A16D8
:101CE6008A1519250A128A15831203132D08D400A2
:101CF60001300310D40DFF3E031D7C2E0310540D3E
:101D0600253E84000A168A1500200A128A15D50077
:101D16000A168A1500200A128A15D6000A168A158E
:101D260000200A128A15D7000A168A1500200A1200
:101D36008A15D8005808B9005708B8005608B700E1
:101D46005508B6006430AD000030AE006208AF0042
:101D5600B001AF1BB0030A168A1519250A128A1597
:101D6600831203132D08D90001300310D90DFF3E4D
:101D7600031DB82E0310590D493E84000A168A1514
:101D860000200A128A15DA000A168A1500200A129D
:101D96008A15DB000A168A1500200A128A15DC004D
:101DA6000A168A1500200A128A15DD005D08BD0094
:101DB6005C08BC005B08BB005A08BA000A128A1508
:101DC60058210A128A15831203133908E1003808CC
:101DD600E0003708DF003608DE000A30A6000030D3
:101DE600A7006208A800A901A81BA9030A168A155C
:101DF6008D230A128A15831203132608D400013094
:101E06000310D40DFF3E031D032F0310540D013E96
:101E160084000A168A1500200A128A15D5000A16A9
:101E26008A1500200A128A15D6000A168A1500207D
:101E36000A128A15D7000A168A1500200A128A1570
:101E4600D8005808B9005708B8005608B700550812
:101E5600B6006108BD006008BC005F08BB005E08F4
:101E6600BA000A128A1558210A128A158312031318
:101E76003908D3003808D2003708D1003608D00018
:101E8600FF2F6208803A753E031C4A2F4B2FD32F33
:101E96000A30A6000030A7006208A800A901A81B06
:101EA600A9030A168A158D230A128A1583120313AB
:101EB6002608D40001300310D40DFF3E031D5E2F0B
:101EC6000310540D013E84000A168A1500200A12DA
:101ED6008A15D5000A168A1500200A128A15D60018
:101EE6000A168A1500200A128A15D7000A168A15BC
:101EF60000200A128A15D8005808B9005708B800F9
:101F06005608B7005508B6000A30AD000030AE00DE
:101F16006208AF00B001AF1BB0030A168A15192577
:101F26000A128A15831203132D08D90001300310F3
:101F3600D90DFF3E031D9A2F0310590D253E84002F
:101F46000A168A1500200A128A15DA000A168A1558
:101F560000200A128A15DB000A168A1500200A12CA
:101F66008A15DC000A168A1500200A128A15DD0079
:101F76005D08BD005C08BC005B08BB005A08BA00DF
:101F86000A128A1558210A128A1583120313390870
:101F9600D3003808D2003708D1003608D000FF2F0A
:101FA6006208D40001300310D40DFF3E031DD62F66
:101FB6000310540D013E84000A168A1500200A12E9
:101FC6008A15D5000A168A1500200A128A15D60027
:101FD6000A168A1500200A128A15D7000A168A15CB
:101FE60000200A128A15D8005808D3005708D200D4
:0A1FF6005608D1005508D00008007D
:102002000030831203132605AE0000302705AF000F
:1020120080302805B0007F302905B1003108300436
:102022002F042E04031D162817281F280030A9008C
:102032000030A8000030A7000030A60000302A05BA
:10204200AE0000302B05AF0080302C05B0007F3091
:102052002D05B100310830042F042E04031D32284F
:1020620033283B280030AD000030AC000030AB001C
:102072000030AA002D082906031D49282C0828062D
:10208200031D49282B082706031D49282A0826066E
:1020920003194C284D284F28031050280314080018
:1020A200031083120313280D290DB4003408031DF5
:1020B2005B285C2865280030A9000030A8000030A9
:1020C200A7000030A600082903102C0D2D0DB30027
:1020D2003308031D6D286E286F285C28A817FF306F
:1020E200A605FF30A705FF30A8050030A905AC17EB
:1020F200FF30AA05FF30AB05FF30AC050030AD055F
:102102000030B2000030B1000030B0000030AF004B
:102112007F30B402A0303307AE002E08B402203064
:10212200B3000130AE000310AF0DB00DB10DB20D12
:10213200AE0B94282D082902031DA9282C08280279
:10214200031DA9282B082702031DA9282A082602F5
:10215200031CAC28AD28BC282A08A6022B08031CA5
:102162002B0FA7022C08031C2C0FA8022D08031CFE
:102172002D0FA9022F140130AE000310A60DA70DDA
:10218200A80DA90DAE0BBE280130B302031DCA284B
:10219200CB289228B41FCE28CF28E9283408803AC9
:1021A2009F3E0318D528D628D7285C280130031073
:1021B200B20CB10CB00CAF0CFF3E031DD82801309D
:1021C200AE002E08B407031DE728E828D728002907
:1021D20020303402031CEE28EF28FB285C28013053
:1021E200AE000310AF0DB00DB10DB20DAE0BF22863
:1021F2000130B4023408031DFF280029F0283208F8
:10220200A9003108A8003008A7002F08A60008007E
:1022120083120313E3006E306302031C1129122997
:10222200212A3F30B9000030B8000030B70000303A
:10223200B6006430AC000030AD006308D400D501B4
:102242005408AE005508AF000A168A15A5220A16D0
:102252008A11831203132C08D60001300310D60D05
:10226200FF3E031D2F290310560D7D3E84000A16E2
:102272008A1500200A168A11D7000A168A1500202C
:102282000A168A11D8000A168A1500200A168A111F
:10229200D9000A168A1500200A168A11DA005A088D
:1022A200BD005908BC005808BB005708BA000A1202
:1022B2008A1558210A168A11831203133908E2007B
:1022C2003808E1003708E0003608DF000A30AC00C9
:1022D2000030AD006308D400D5015408A8005508A9
:1022E200A9006430A6000030A7000A168A156922E8
:1022F2000A168A11831203132708AF002608AE00BC
:102302000A168A15A5220A168A11831203132C08AB
:10231200D60001300310D60DFF3E031D8B2903109A
:10232200560D593E84000A168A1500200A168A1193
:10233200D7000A168A1500200A168A11D8000A1632
:102342008A1500200A168A11D9000A168A15002059
:102352000A168A11DA005A08B9005908B800580852
:10236200B7005708B6006208BD006108BC006008EB
:10237200BB005F08BA000A128A1558210A168A1190
:10238200831203133908DE003808DD003708DC0049
:102392003608DB000A30A6000030A7006308D4002C
:1023A200D5015408A8005508A9000A168A15692201
:1023B2000A168A11831203132608D600013003106D
:1023C200D60DFF3E031DE0290310560D353E840055
:1023D2000A168A1500200A168A11D7000A168A15CB
:1023E20000200A168A11D8000A168A1500200A1639
:1023F2008A11D9000A168A1500200A168A11DA00F3
:102402005A08B9005908B8005808B7005708B6006A
:102412005E08BD005D08BC005C08BB005B08BA003A
:102422000A128A1558210A168A11831203133908CF
:10243200D3003808D2003708D1003608D000152B57
:102442000B306302031C262A272AD22A3F30B90006
:102452000030B8000030B7000030B6000A30AC00DF
:102462000030AD006308D400D5015408AE00550811
:10247200AF000A168A15A5220A168A1183120313BF
:102482002C08D60001300310D60DFF3E031D442A4E
:102492000310560D593E84000A168A1500200A16AA
:1024A2008A11D7000A168A1500200A168A11D80046
:1024B2000A168A1500200A168A11D9000A168A15E8
:1024C20000200A168A11DA005A08BD005908BC0019
:1024D2005808BB005708BA000A128A1558210A1672
:1024E2008A11831203133908E2003808E100370821
:1024F200E0003608DF000A30A6000030A7006308BB
:10250200D400D5015408A8005508A9000A168A1556
:1025120069220A168A11831203132608D600013093
:102522000310D60DFF3E031D912A0310560D353EB2
:1025320084000A168A1500200A168A11D7000A1684
:102542008A1500200A168A11D8000A168A15002058
:102552000A168A11D9000A168A1500200A168A114B
:10256200DA005A08B9005908B8005808B7005708E5
:10257200B6006208BD006108BC006008BB005F08CD
:10258200BA000A128A1558210A168A1183120313F5
:102592003908D3003808D2003708D1003608D000F5
:1025A200152B3F30B9000030B8000030B7000030C2
:1025B200B6006308D40001300310D40DFF3E031DA2
:1025C200DD2A0310540D353E84000A168A150020B8
:1025D2000A168A11D5000A168A1500200A168A11CF
:1025E200D6000A168A1500200A168A11D7000A1682
:1025F2008A1500200A168A11D8005808BD0057080B
:10260200BC005608BB005508BA000A128A155821A8
:102612000A168A11831203133908D3003808D2002C
:102622003708D1003608D0000800831603132308A8
:102632008039B0002308A8002807B200A21F222B6D
:10264200232B242B321432080319282B292B392B44
:10265200320A031D2D2B2E2B362B0030A300003007
:10266200A2000030A1000030A000A217A301412B5C
:102672000030A3000030A2000030A1000030A00012
:1026820027088039B100310830060319492B4A2B3B
:102692004B2B30172708A8002807B100A61F522B82
:1026A200532B542B311431080319582B592B692BF6
:1026B200310A031D5D2B5E2B662B0030A700003014
:1026C200A6000030A5000030A400A617A701712BB8
:1026D2000030A7000030A6000030A5000030A400A2
:1026E200320831020318762B772B9D2B301F7A2B61
:1026F2007B2B7F2B8030A8002808B0063208B3005D
:102702003108B2003308B1002008B3002408A00049
:102712003308A4002108B3002508A1003308A5004E
:102722002208B3002608A2003308A6002308B3003B
:102732002708A3003308A700B3013108A800A901A4
:102742002908AB0032082802AA00031CAB032B089D
:10275200803AFF0080307F02031DB12B1A302A021B
:10276200031CB42BB52BEC2B831603132308220472
:1027720021042004031DBE2BC02B0130C12B0030CD
:10278200B3000030A3000030A2000030A1000030EE
:10279200A0003108B200F42B331CD02BD12BD82B44
:1027A2003308A8000310280C0138B300DA2B0310F9
:1027B200B30C201CDD2BDE2BDF2BB3170130A8005E
:1027C200230DA30CA20CA10CA00CA80BE12B013031
:1027D200A8002808B2078316031331083202031C2B
:1027E200F32BF42BCD2B301BF72BF82B412C32087B
:1027F200031DFC2BFD2B062C0030A3000030A20091
:102802000030A1000030A0006D2D2408A00725088B
:1028120003110318013E03190F2CA1072608031107
:102822000318013E0319162CA207270803110318E7
:10283200013E03191D2CA307231C202C212CF52C4F
:10284200331C242C252C2C2C3308A8000310280C14
:102852000138B3002E2C0310B30C201C312C322C67
:10286200332CB3170130A800230DA30CA20CA10C2A
:10287200A00CA80B352C0130A8002808B207F52CB3
:102882002308803AFF002708803A7F02031D532C59
:1028920026082202031D532C25082102031D532C56
:1028A200240820020318562C572CAF2CFF30A80006
:1028B200FF30A900FF30AA00FF30AB002408AC00B3
:1028C2002508AD002608AE002708AF002008AC029C
:1028D2002108031C210F6E2C6F2CAD022208031C51
:1028E200220F742C752CAE022308031C230F7A2CA2
:1028F2007B2CAF022C08A8072D0803182D0F822C61
:10290200832CA9072E0803182E0F882C892CAA07BE
:102912002F0803182F0AAB072B08A3002A08A200CE
:102922002908A1002808A0008030A8002808B006C5
:10293200B309B30A3308031D9F2CA02CBD2C013010
:10294200A007003003180130A1070030031801303E
:10295200A207003003180130A307BD2C2408A002EF
:102962002508031C250FA1022608031C260FA2021C
:102972002708031C270FA302230822042104200492
:10298200031DC42CC52CF12C3308031DC92CCA2CE1
:10299200F12C0030A3000030A2000030A100003072
:1029A200A0006D2D0130A8000310A00DA10DA20DF5
:1029B200A30DA80BD52CB31FDF2CE02CE12C201487
:1029C200331CE42CE52CE82C0314B30DEA2C031081
:1029D200B30D32080319EE2CEF2CF12C0130B202A8
:1029E200A21FF42CF52CD32CB101B31FF92CFA2C15
:1029F200082D33087F390319FF2C002D032DB10157
:102A0200B10A082D201C062D072D082D002D310896
:102A120003190C2D0D2D412D0130A0070030031894
:102A22000130A107003003180130A207003003185B
:102A32000130A307231C1E2D1F2D412D2008A800A5
:102A42002108A9002208AA002308AB000130AC002B
:102A52002B0DAB0CAA0CA90CA80CAC0B292D2B0826
:102A6200A3002A08A2002908A1002808A000320A0F
:102A720003193C2D3D2D412D0130A8002808B20735
:102A8200320A0319452D462D4B2D3208031D4A2DBE
:102A92004B2D592D0030A3000030A2000030A100C0
:102AA2000030A0003208031D572D582D592DB001BA
:102AB200321C5C2D5D2D5F2DA217632D7F30A80087
:102AC2002808A2053208A8000310280CA300B01F92
:102AD2006B2D6C2D6D2DA31708008312031357085D
:102AE200803983160313A400831203135708D800F6
:102AF200580783160313AB0083120313D61F822DCC
:102B0200832D862D831603132B14831603132B0890
:102B120003198C2D8D2DA02D2B0A031D912D922D85
:102B22009C2D003083120313D7000030D6000030F2
:102B3200D5000030D4008312D617D701AA2D003059
:102B420083120313D7000030D6000030D5000030C6
:102B5200D40053088039D800580883160313A406FA
:102B6200831203135308D800580783160313AC00CB
:102B720083120313D21FBE2DBF2DC22D8316031342
:102B82002C14831603132C080319C82DC92DDC2D10
:102B92002C0A031DCD2DCE2DD82D00308312031308
:102BA200D3000030D2000030D1000030D0008312B8
:102BB200D217D301E62D003083120313D300003065
:102BC200D2000030D1000030D0005308520451042A
:102BD2005004031DED2DEE2D0B2E0030D7000030DA
:102BE200D6000030D5000030D4008030D6047F30CB
:102BF200D70483160313240883120313D80058083A
:102C0200D7045708D3005608D2005508D1005408FB
:102C1200D000FF2F831603132B08031D112E122E33
:102C22001D2E003083120313D3000030D200003077
:102C3200D1000030D000FF2F2B0883120313D800DD
:102C4200D9015908DB00831603132C0883120313DE
:102C52005802DA00031CDB035A087F3E8316031373
:102C6200A500831203135B080318013E003E83167E
:102C72000313A60083120313570883160313A3003A
:102C820083120313560883160313A200831203133D
:102C9200550883160313A1008312031354088316E5
:102CA2000313A000003083120313D7000030D600B4
:102CB2000030D5000030D400003083160313AA0080
:102CC2000030A9000030A8000030A700AC01EF2EB0
:102CD2002C0803196D2E6E2E9D2E013083120313C4
:102CE200D800031083160313A00DA10DA20DA30D8E
:102CF20083120313D80B722E0130D8000310D40DA7
:102D0200D50DD60DD70DD80B7F2E83160313AA1F10
:102D12008B2E8C2E8F2E83120313541401308312A8
:102D2200D800031083160313A70DA80DA90DAA0D31
:102D320083120313D80B922E8312530883160313A4
:102D42002302031DBA2E83120313520883160313A0
:102D52002202031DBA2E8312031351088316031392
:102D62002102031DBA2E8312031350088316031384
:102D72002002031CBD2EBE2EE72E2A178312031338
:102D8200500883160313A002831203135108031C75
:102D9200510FCC2ECF2E83160313A10283120313DD
:102DA2005208031C520FD62ED92E83160313A202E9
:102DB200831203135308031C530FE02EE32E8316D2
:102DC2000313A30283120313831603130130831226
:102DD2000313D800580883160313AC071A302C02C9
:102DE200031CF42EF52E692E23082204210420044C
:102DF2000319FC2EFD2E272F2714272F0130D80070
:102E02000310D40DD50DD60DD70DD80B012F831677
:102E12000313AA1F0D2F0E2F112F83120313541405
:102E220001308312D800031083160313A70DA80DD7
:102E3200A90DAA0D83120313D80B142FFF3083168A
:102E42000313A5070318A60AFF30A607831203136C
:102E5200D61F2C2F2D2FFF2E83160313AC01AA1F72
:102E6200332F342F602FFF30270583120313D8002E
:102E7200FF3083160313280583120313D900FF3092
:102E820083160313290583120313DA007F30831696
:102E920003132A0583120313DB005B085A04590447
:102EA20058040319552F562F5B2F83160313AC01B9
:102EB200AC0A602F541C5E2F5F2F602F562F831693
:102EC20003132C080319662F672F9C2F01308312DE
:102ED2000313D407003003180130D507003003185C
:102EE2000130D607003003180130D707571C7A2F5C
:102EF2007B2F9C2F5408D8005508D9005608DA00B9
:102F02005708DB000130DC005B0DDB0CDA0CD90C5E
:102F1200D80CDC0B852F5B08D7005A08D60059085D
:102F2200D5005808D400013083160313A5070318EF
:102F3200A60A0030A607831603132608803AFF006C
:102F420080307F02031DA72FFF302502031CAA2F0A
:102F5200AB2FBB2FFF3083160313A5000030A60052
:102F6200003083120313D7000030D6000030D500A2
:102F72000030D400831603132608803AFF00803005
:102F82007F02031DC62F013025020318C92FCA2F45
:102F9200DB2F83160313A501A6010030831203134E
:102FA200D7000030D6000030D5000030D4008316A0
:102FB2000313A401831603132508AB002B1CE22F75
:102FC200E32FE72F83120313D617ED2F7F308312DF
:102FD2000313D8005808D605831603132B0883124F
:102FE2000313D8000310580CD700831603132408C8
:102FF20083120313D8005808D704022E0800183091
:103002008A000408840A82070034003400348034C1
:103012003F34003400342034413400340034C834A6
:103022004234003400347A344434003440341C34A2
:10303200463400345034C3344734003424347434B6
:1030420049348034963418344B342034BC34BE3482
:103052004C3428346B346E344E34F9340234153423
:103062005034EC347834AD346034CA34F2344934F8
:1030720071340034003480343F34CD34CC34CC3419
:103082003D340A34D73423343C346F34123483341D
:103092003A341734B734D1343834AC34C5342734E5
:1030A2003734BD343734863435349534BF34D6346E
:1030B20033347734CC342B3432345F347034893443
:1030C2003034FF34E634DB342E340834E5343C3417
:1030D2001E3460344234A2340D34013400340034DE
:1030E20000340A34003400340034643400340034D0
:1030F2000034E8340334003400341034273400340C
:103102000034A034863401340034403442340F3465
:10311200003480349634983400340034E134F53489
:1031220005340034CA349A343B3476346F346C3408
:0C31320074343D342034253466340034FD
:10327E0000300A168A154C210A168A1501300A16D4
:10328E008A154C210A168A15080083120313A90009
:10329E00081129080A168A1568210A168A1583123A
:1032AE00031388150B3083120313A8006130A70097
:1032BE00A70B5F29A80B5F296429831203138811BA
:1032CE00080083120313A600261C6E296F2971298C
:1032DE00081672290812A61C7529762978298816CF
:1032EE0079298812261D7C297D297F290817802996
:1032FE000813A61D832984298629881787298813F0
:10330E000800803083160313B7063B08A3003A0863
:10331E00A2003908A1003808A0003708A700360817
:10332E00A6003508A5003408A4000A168A11162333
:10333E000A168A15831603132308B7002208B6004F
:10334E002108B5002008B400080083120313AE0054
:10335E00AC01AD01C5292C082E07AB002B0884004B
:10336E0000080A168A1530220A168A1501308312B1
:10337E000313AC070318AD0A0030AD072C082E0757
:10338E00AB002B08840083170008031DCF29D0291A
:10339E00B229080083120313AA01AB01261CD829F7
:1033AE00D929DF292808AA070318AB0A2908AB0771
:1033BE0001300310A80DA90DFF3E031DE0290130B9
:1033CE000310A70CA60CFF3E031DE72926082704B1
:1033DE00031DF229F329D5292B08A7002A08A600D8
:1033EE00080003308316031788008901FF30831607
:1033FE0003138500FF308600870188018901811340
:10340E003F309500831203138801890170308316B3
:10341E0003138F040F149F131F129F128312031393
:10342E001F083F3940389F00C3309F051F142030BE
:10343E0083120313A600A60B222A00008312031385
:10344E000C13831603130C178B110B140B178B17FE
:10345E00080083120313AA002A080F39A8002A08AD
:10346E00F039A90008152908A70004300310A70C8D
:10347E00FF3E031D3D2A27080A168A1568210A16E3
:10348E008A15831203138815193083120313A700AC
:10349E00A70B4F2A522A83120313881128080A16E3
:1034AE008A1568210A168A15831203138815193096
:1034BE0083120313A700A70B622A652A8312031334
:1034CE008811080083120313260827040319702A93
:1034DE00712AA02AAB01AB0A7F2A01300310A60D78
:1034EE00A70DFF3E031D752A0130AA002A08AB075F
:1034FE00A71F822A832A742A27082902031D892AD4
:10350E0026082802031C8C2A8D2A932A2608A80234
:10351E002708031CA903A90201300310A70CA60C4F
:10352E00FF3E031D942A0130AB02031D9F2AA02AE1
:10353E00832A2908A7002808A6000800831203136F
:10354E00B101B2012C082D040319AE2AAF2AE62AC6
:10355E00B301B30ABD2A01300310AC0DAD0DFF3E11
:10356E00031DB32A0130B0003008B307AD1FC02AC7
:10357E00C12AB22A01300310B10DB20DFF3E031D58
:10358E00C22A2D082F02031DCE2A2C082E02031C40
:10359E00D12AD22AD92A2C08AE022D08031CAF0339
:1035AE00AF02311401300310AD0CAC0CFF3E031D05
:1035BE00DA2A0130B302031DE52AE62AC12A3208AF
:1035CE00AD003108AC00080083120313AC002C03CD
:1035DE00031DF22AF32A122B2A087F3EAF002F0872
:1035EE00AB0004300310AB0CFF3E031DF92A2B0871
:1035FE00AD002F080F39AE002D080A168A154C2182
:10360E000A168A15831203132E080A168A154C21E0
:10361E000A168A15362B02302C06031D172B182B73
:10362E00362B2A08BF3EAF002F08AB000430031024
:10363E00AB0CFF3E031D1E2B2B08AD002F080F39C0
:10364E00AE002D080A168A154C210A168A15831209
:10365E0003132E080A168A154C210A168A1508001D
:10366E008312031329082804270426040319402B68
:10367E00412B842BAF01AF0A512B0130AE0003104A
:10368E00A60DA70DA80DA90DAE0B462B0130AE0051
:10369E002E08AF07A91F542B552B442B29082D029A
:1036AE00031D632B28082C02031D632B27082B02F6
:1036BE00031D632B26082A02031C662B672B752B12
:1036CE002608AA022708031C270FAB022808031C92
:1036DE00280FAC022908031C290FAD02013003107C
:1036EE00A90CA80CA70CA60CFF3E031D762B0130CF
:1036FE00AF02031D832B842B552B2D08A9002C08FC
:10370E00A8002B08A7002A08A6000800831203139E
:10371E00AC01A91F932B942B9B2BA809A909A80ACE
:10372E000319A90AAC01AC0AA71F9E2B9F2BA42B31
:10373E00A609A709A60A0319A70A2608270403192A
:10374E00A92BAA2BD92BAB01AB0AB82B0130031036
:10375E00A60DA70DFF3E031DAE2B0130AA002A08B1
:10376E00AB07A71FBB2BBC2BAD2B27082902031DB4
:10377E00C22B26082802031CC52BC62BCC2B2608D1
:10378E00A8022708031CA903A90201300310A70CE5
:10379E00A60CFF3E031DCD2B0130AB02031DD82B13
:1037AE00D92BBC2B2C080319DD2BDE2BE32BA80900
:1037BE00A909A80A0319A90A2908A7002808A6001A
:1037CE00080000300A168A1568210A168A15343048
:1037DE0083120313AB00F130AA00AA0BF42BAB0B30
:1037EE00F42B03300A168A154C210A168A150D3051
:1037FE0083120313AB00FB30AA00AA0B042CAB0BF5
:10380E00042C03300A168A154C210A168A151D300F
:10381E0083120313AB009030AA00AA0B142CAB0B2F
:10382E00142C000003300A168A154C210A168A152C
:10383E0002300A168A154C210A168A1502300A160B
:10384E008A154C210A168A1508300A168A154C213B
:10385E000A168A1500300A168A154C210A168A1580
:10386E000C300A168A154C210A168A1500300A16D3
:10387E008A154C210A168A1506300A168A154C210D
:10388E000A168A150800F601F11F4E2C4F2C562CE5
:10389E00F009F109F00A0319F10AF601F60AF31F0D
:1038AE00592C5A2C632CF209F309F20A0319F30A64
:1038BE000130F4007408F606F701F801700871047F
:1038CE0003196A2C6B2CA22CF501F50A792C013008
:1038DE000310F00DF10DFF3E031D6F2C0130F400AF
:1038EE007408F507F11F7C2C7D2C6E2C0130031013
:1038FE00F70DF80DFF3E031D7E2C71087302031D9C
:10390E008A2C70087202031C8D2C8E2C952C70083C
:10391E00F2027108031CF303F30277140130031053
:10392E00F10CF00CFF3E031D962C0130F502031D29
:10393E00A12CA22C7D2C76080319A62CA72CAC2C1E
:10394E00F709F809F70A0319F80A7808F100770859
:10395E00F0000800003083120313B2000030B100F3
:10396E000030B0000030AF002908280427042604D8
:10397E000319C22CC32C102DB301B30AD32C013062
:10398E00AE000310A60DA70DA80DA90DAE0BC82CE9
:10399E000130AE002E08B307A91FD62CD72CC62C8B
:1039AE000130AE000310AF0DB00DB10DB20DAE0B68
:1039BE00D92C29082D02031DEE2C28082C02031DDC
:1039CE00EE2C27082B02031DEE2C26082A02031CC0
:1039DE00F12CF22C012D2608AA022708031C270F12
:1039EE00AB022808031C280FAC022908031C290F60
:1039FE00AD022F1401300310A90CA80CA70CA60CB5
:103A0E00FF3E031D022D0130B302031D0F2D102D9D
:103A1E00D72C3208A9003108A8003008A7002F08BB
:103A2E00A600080083120313B301AE1F1F2D202D15
:103A3E00272DAD09AE09AD0A0319AE0AB301B30ABB
:103A4E00B01F2A2D2B2D342DAF09B009AF0A031943
:103A5E00B00A0130B1003108B306B401B5012D082A
:103A6E002E0403193B2D3C2D732DB201B20A4A2DA3
:103A7E0001300310AD0DAE0DFF3E031D402D013084
:103A8E00B1003108B207AE1F4D2D4E2D3F2D013026
:103A9E000310B40DB50DFF3E031D4F2D2E08300241
:103AAE00031D5B2D2D082F02031C5E2D5F2D662D31
:103ABE002D08AF022E08031CB003B00234140130DF
:103ACE000310AE0CAD0CFF3E031D672D0130B2028C
:103ADE00031D722D732D4E2D33080319772D782D5E
:103AEE007D2DB409B509B40A0319B50A3508AE001F
:103AFE003408AD0008000C1F852D862DE62D1F0CF9
:103B0E00A000200C0F39013A031D8E2D8F2DA62DEE
:103B1E001E08A000A1012008F0002108F1000530C8
:103B2E00F2000030F3000A168A154A240A168A1586
:103B3E00710883120313E8007008E700E32D1F0CD1
:103B4E00A000200C0F39003A031DAE2DAF2DCD2D48
:103B5E001E08A000A101A201A3012308F300220860
:103B6E00F2002108F1002008F00000300A168A1534
:103B7E0048270A168A15730883160317AB007208B6
:103B8E00AA007108A9007008A800E32D1F0CA00060
:103B9E00200C0F39023A031DD52DD62DE32D1E080C
:103BAE00A000A101200883160313E2008312031361
:103BBE00210883160313E300831203130C13250845
:103BCE008A00240E8300FE0E7E0E09000030831242
:103BDE0003132605AE0000302705AF008030280500
:103BEE00B0007F302905B100310830042F042E04B7
:103BFE00031D022E032E0B2E0030A9000030A8004C
:103C0E000030A7000030A60000302A05AE000030BC
:103C1E002B05AF0080302C05B0007F302D05B10094
:103C2E00310830042F042E04031D1E2E1F2E272EA6
:103C3E000030AD000030AC000030AB000030AA0008
:103C4E00A91F2A2E2B2E4F2E0030AE000030AF00B3
:103C5E000030B0008030B1002608AE022708031CE9
:103C6E00270F3A2E3B2EAF022808031C280F402E9A
:103C7E00412EB0022908031C290F462E472EB102F1
:103C8E003108A9003008A8002F08A7002E08A600AA
:103C9E00AD1F522E532E772E0030AE000030AF00E7
:103CAE000030B0008030B1002A08AE022B08031C91
:103CBE002B0F622E632EAF022C08031C2C0F682EC6
:103CCE00692EB0022D08031C2D0F6E2E6F2EB10221
:103CDE003108AD003008AC002F08AB002E08AA004A
:103CEE008030A9068030AD062D082902031D892ECD
:103CFE002C082802031D892E2B082702031D892E4E
:103D0E002A08260203188C2E8D2E8F2E0310902E2D
:103D1E0003140800831203132608AE002708AF0011
:103D2E002808B00003102F0D300DB6003608031D05
:103D3E00A12EA22EAB2E0030A9000030A80000301C
:103D4E00A7000030A600472F2A08AE002B08AF00B0
:103D5E002C08B00003102F0D300DB5003508031DD3
:103D6E00B92EBA2EBB2EA22EA717FF30A605FF30F6
:103D7E00A7050030A805AB17FF30AA05FF30AB052D
:103D8E000030AC050030B4000030B3000030B2009B
:103D9E000030B1007F30B60298303507AE002E08E5
:103DAE00B6021830B5000130AE000310B10DB20DE1
:103DBE00B30DB40DAE0BDC2E2C082802031DED2E18
:103DCE002B082702031DED2E2A082602031CF02EB7
:103DDE00F12EFC2E2A08A6022B08031C2B0FA7027D
:103DEE002C08031C2C0AA802311401300310A60D56
:103DFE00A70DA80DFF3E031DFD2E0130B502031DBC
:103E0E00092F0A2FDA2EB61F0D2F0E2F282F360848
:103E1E00803A973E0318142F152F162FA22E01301D
:103E2E000310B40CB30CB20CB10CFF3E031D172FD4
:103E3E000130AE002E08B607031D262F272F162F92
:103E4E003F2F18303602031C2D2F2E2F3A2FA22E65
:103E5E000130AE000310B10DB20DB30DB40DAE0BAB
:103E6E00312F0130B6023608031D3E2F3F2F2F2F64
:103E7E003408A9003308A8003208A7003108A600AC
:103E8E000800F800780803194D2F4E2F622FF31FEC
:103E9E00512F522F622F7009FA007109FB0072091F
:103EAE00FC007309FD00FA0A0319FB0A0319FC0A48
:103EBE000319FD0A6A2F7308FD007208FC007108D1
:103ECE00FB007008FA007308720471047004031D7D
:103EDE00712F722F7B2F0030F3000030F200003074
:103EEE00F1000030F000FF2F9630F9008B2F0130DB
:103EFE00F4007408F90701300310FD0CFC0CFB0CE8
:103F0E00FA0CFF3E031D832FFE307D05031D902FFF
:103F1E00912F7E2FAD2F0130F4007408F907013078
:103F2E00FA07003003180130FB0700300318013088
:103F3E00FC07003003180130FD0701300310FD0CA3
:103F4E00FC0CFB0CFA0CFF3E031DA52FFF307D056C
:103F5E00031DB22FB32F922FBF2F0130F902013064
:103F6E00F4000310FA0DFB0DFC0DFD0DF40BB82F34
:103F7E00FC1BC22FC32FC92F023079020318C82F82
:103F8E00C92FB42F7918CC2FCD2FD52FFF30FA058E
:103F9E00FF30FB057F30FC05FF30FD050310F90CEB
:103FAE007908F400F501F601F70118300310F40D4D
:103FBE00F50DF60DF70DFF3E031DDD2F7408FA0407
:103FCE007508FB047608FC047708FD0478080319CD
:103FDE00F12FF22FF72FF31FF52FF62FF72FFD17D7
:103FEE007D08F3007C08F2007B08F1007A08F000EF
:0A3FFE000800FF3FFF3FFF3FFF3FB9
:04400E00D520FF3F7B
:00000001FF
