:060000000A128A110C280F
:10000800FE00030EF1000A08F2000A128A11542FAA
:100018000A128A110F28F901FA0183120313DA016F
:1000280083010A128A119E2983120313B9002F3003
:10003800B400892925303C060319232824282E28B2
:10004800390884003C08831380000130B10031086E
:10005800B9078929BA01BB01B5013728351501301F
:10006800B1003108AE072E0884000A128A110A2549
:100078000A128A11B100B2013208003A0319452860
:100088004A283108303A031932284A282E088400B1
:100098000A128A110A250A128A110A128A1180275D
:1000A8000A128A11031C59285A28A02883120313FC
:1000B800BA01BB010A30F3000030F40083120313C5
:1000C8003B08F6003A08F5000A128A1113270A12AB
:1000D8008A11740883120313BB007308BA002E0830
:1000E80084000A128A110A250A128A11D03EB10028
:1000F800FF3003180030B2003108BA070318BB0AF2
:100108003208BB070130B1003108AE072E08840061
:100118000A128A110A250A128A110A128A118027DC
:100128000A128A11031899289A285E28A028C03034
:10013800B1003108B504BC28013083120313AE079F
:10014800FF302E0784000A128A110A250A128A1122
:10015800BC00B100B2013208003A0319B428892959
:100168003108003A03199929753A03199B288929F6
:100178003408840083130008B600840A0008B70016
:100188000230B1003108B407BC01BC0A3C08B10018
:100198003107013E84000A128A110A250A128A11BF
:1001A800B2000A128A110A250A128A11B30033080A
:1001B8003702031DE128320836020318E428E5282F
:1001C800E628F0280130B1003108BC0705303C06AC
:1001D800031DEF28F028CA283B08803A803C031DFD
:1001E800F7283A083C020318FA28FB280729831243
:1001F80003133C08B100B2013108BA023208031CEB
:10020800BB03BB020B2983120313BA01BB01351DC3
:100218000E290F292B293A083B04031914291529FB
:100228004629390884003030831380000130B1003A
:100238003108B907FF30BA070318BB0AFF30BB07FC
:100248003A083B04031D29292A29152946293A0871
:100258003B04031930293129462939088400203004
:10026800831380000130B1003108B907FF30BA07A5
:100278000318BB0AFF30BB073A083B04031D452996
:10028800462931293C08B80080290A30A8000030E6
:10029800A9003808B1003107013E84000A128A110A
:1002A8000A250A128A11A0000A128A110A250A12BE
:1002B8008A11A1003708A3003608A2000A128A1181
:1002C8003E260A128A11831203132108AB00200864
:1002D800AA000A128A1184260A128A1183120313A9
:1002E8002808303EBC00390884003C08831380008D
:1002F8000130B1003108B907FF30B1003108B80743
:10030800380A031D8829892949290130AE07FF3099
:100318002E0784000A128A110A250A128A11BC00C3
:100328003C08031D982999291E283908840083133D
:10033800800108000A128A11EB260A128A1170300D
:10034800831603138F00003083120313AB000030B1
:10035800AA002530A9008030A8000A128A11792342
:100368000A128A11153083120313CC004B30CB00CC
:10037800BD30CA00CA0BBE29CB0BBE29CC0BBE2987
:10038800C5294330F4008030F5000A128A11C026CE
:100398000A128A110B3083120313CC002630CB00CB
:1003A8005D30CA00CA0BD629CB0BD629CC0BD6296F
:1003B8002730F4008030F5000A128A11C0260A128C
:1003C8008A110B30F4008030F5000A128A11C02619
:1003D8000A128A110B3083120313CC002630CB008B
:1003E8005D30CA00CA0BF629CB0BF629CC0BF629CF
:1003F8003030831203139A005730F4008030F50030
:100408000A128A11C0260A128A11831203139F1432
:10041800831203139F18112A122A132A9F140A12EF
:100428008A116D270A128A1183120313D800063025
:1004380083120313CB002F30CA00CA0B212ACB0B1F
:10044800212A262A8F2A1E08DA005A08CA00CB0158
:100458004A08B6004B08B7000030B800B900FF30B2
:10046800BA000030BB000030BC00BD000530BE0043
:100478000030BF000A128A11D8250A128A11831285
:1004880003133708D7003608D6005730F4008030F9
:10049800F5000A128A11C0260A128A115A308312EC
:1004A8000313AE005708B0005608AF004D300A12CB
:1004B8008A1118200A128A114D30F4000030F50014
:1004C8000A128A11C0260A128A110A128A113827BA
:1004D8000A128A113030831203139A00A42AC730F3
:1004E80083120313CA00782ACA0B772A7B2A0130A1
:1004F80083120313CA004A088607692AC730831281
:100508000313CA00872ACA0B862A8A2A0130831253
:1005180003138602692A831203135808CA00CB0101
:100528004B08003A0319992AA42A4A082B3A0319B6
:10053800732A063A0319822A1C3A0319272AA42A7D
:100548000A128A11AC270A128A11031CAC2AAD2A96
:100558000C2A0A128A1192270A128A11831203138B
:10056800D90059080A128A11A0270A128A110C2ADE
:100578000A128A110C2883120313B00030080319D9
:10058800C62AC72ADB2AAB1FCA2ACB2ADB2A280994
:10059800B2002909B3002A09B4002B09B500B20A30
:1005A8000319B30A0319B40A0319B50AE32A2B0875
:1005B800B5002A08B4002908B3002808B2002B089F
:1005C8002A0429042804031DEA2AEB2AF42A003005
:1005D800AB000030AA000030A9000030A800782B3A
:1005E8009630B100042B0130AC002C08B107013063
:1005F8000310B50CB40CB30CB20CFF3E031DFC2A5F
:10060800FE303505031D092B0A2BF72A262B01304E
:10061800AC002C08B1070130B207003003180130D4
:10062800B307003003180130B40700300318013055
:10063800B50701300310B50CB40CB30CB20CFF3E77
:10064800031D1E2BFF303505031D2B2B2C2B0B2BCD
:10065800382B0130B1020130AC000310B20DB30DDC
:10066800B40DB50DAC0B312BB41B3B2B3C2B422BE3
:10067800023031020318412B422B2D2B3118452B08
:10068800462B4E2BFF30B205FF30B3057F30B40543
:10069800FF30B5050310B10C3108AC00AD01AE0157
:1006A800AF0118300310AC0DAD0DAE0DAF0DFF3E10
:1006B800031D562B2C08B2042D08B3042E08B404CD
:1006C8002F08B504300803196A2B6B2B702BAB1F4E
:1006D8006E2B6F2B702BB5173508AB003408AA00AA
:1006E8003308A9003208A800080083120313280859
:1006F800AC002908AD002A08AE002B08AF00043072
:100708000310AC0DAD0DAE0DAF0DFF3E031D842BD8
:100718002F08A3002E08A2002D08A1002C08A00075
:100728000030A7007A30A6001230A5000030A400DF
:100738000A128A1170250A128A11831203132008DB
:10074800FF3EB00021080318013EFF3EB100B11F73
:10075800AE2BAF2BB12BB001B1013108803AFF00AD
:1007680081307F02031DBA2B00303002031CBD2BE1
:10077800BE2B0C2C831203132808AC002908AD00EB
:100788002A08AE002B08AF0006300310AC0DAD0DE3
:10079800AE0DAF0DFF3E031DC92B2F08A3002E0879
:1007A800A2002D08A1002C08A0000030A7007A3074
:1007B800A6001230A5000030A4000A128A11702584
:1007C8000A128A11831203132008FF3EB000210881
:1007D8000318013EFF3EB1003108803AFF00813026
:1007E8007F02031DF92B00303002031CFC2BFD2B6C
:1007F800032CFF3083120313B0000030B1008312C2
:100808000313300883160313990020309800142C22
:1008180083120313300883160313990024309800B9
:10082800903083120313980008000310750D760D9D
:10083800F8007808031D212C222C2B2C0030F60000
:100848000030F5000030F4000030F300902C7308FD
:1008580083120313A0007408A1007508A20076088B
:10086800A3001F300310A30CA20CA10CA00CFF3E88
:10087800031D362C2008F700F517FF30F305FF306D
:10088800F405FF30F5050030F6059630F802F81F3C
:100898004E2C4F2C692C7808803A973E0318552C1B
:1008A800562C572C222C01300310F60CF50CF40CA6
:1008B800F30CFF3E031D582C0130A0002008F80758
:1008C800031D672C682C572C802C20307802031CC1
:1008D8006E2C6F2C7B2C222C0130A0000310F30D02
:1008E800F40DF50DF60DA00B722C0130F802780806
:1008F800031D7F2C802C702C77080319842C852CE1
:10090800902CF309F409F509F609F30A0319F40A16
:0A0918000319F50A0319F60A080096
:100A0000FF1B0A2D83137F1883170008840A03191C
:100A1000FF0A080005308A000408840A82070034AF
:100A2000013400340A34003464340034E8340334CC
:100A3000103427342D3420347034613472346134EE
:100A400020346434693473346D3469346E347534ED
:100A500069347234203463346F346E3474346134E6
:100A600064346F3472340D340A34003420342B343F
:100A7000203470346134723461342034613475341C
:100A80006D3465346E3474346134723420346334BC
:100A90006F346E347434613464346F3472340D34B2
:100AA0000A34003431342E344C34653465347234B5
:100AB000203470346F34743465346E346334693484
:100AC0006F346D346534743472346F340D340A34D9
:100AD000003425343034333475340D340A34003462
:100AE0000030F7000030F6000030F5000030F40070
:100AF0008312031323082204210420040319812DE7
:100B0000822DCF2DF801F80A922D0130F300031049
:100B1000A00DA10DA20DA30DF30B872D0130F30045
:100B20007308F807A31F952D962D852D0130F3002E
:100B30000310F40DF50DF60DF70DF30B982D2308AA
:100B40002702031DAD2D22082602031DAD2D21080D
:100B50002502031DAD2D20082402031CB02DB12D4C
:100B6000C02D2008A4022108031C210FA502220881
:100B7000031C220FA6022308031C230FA7027414D0
:100B800001300310A30CA20CA10CA00CFF3E031D0E
:100B9000C12D0130F802031DCE2DCF2D962D7708E3
:100BA000A3007608A2007508A1007408A000080040
:100BB000831203133C083E02F5003D08031C3D0A66
:100BC0003F02F60038083602F3003908031C390AE0
:100BD0003702F4000A128A1113270A128A117408C4
:100BE00083120313A3007308A20038083A02A0007E
:100BF0003908031C390A3B02A1000A128A113E2659
:100C00000A128A11831203133C082007C0003D0812
:100C100003183D0A2107C1004008C2004108C30073
:100C2000C401C5014508AB004408AA004308A90057
:100C30004208A80000300A128A11BF220A128A1143
:100C4000831203132B08C9002A08C8002908C7000B
:100C50002808C6004908F6004808F5004708F400CF
:100C60004608F3000A128A1119240A128A1174081C
:100C700083120313B7007308B6000800831203132E
:100C8000A601A701200821040319472E482E7F2E14
:100C9000A501A50A562E01300310A00DA10DFF3E9F
:100CA000031D4C2E0130A4002408A507A11F592EB6
:100CB0005A2E4B2E01300310A60DA70DFF3E031D2B
:100CC0005B2E21082302031D672E20082202031C2D
:100CD0006A2E6B2E722E2008A2022108031CA30389
:100CE000A302261401300310A10CA00CFF3E031D2B
:100CF000732E0130A502031D7E2E7F2E5A2E27084B
:100D0000A1002608A0000800831203132808290464
:100D100003198B2E8C2EBB2EAD01AD0A9A2E0130FD
:100D20000310A80DA90DFF3E031D902E0130AC004D
:100D30002C08AD07A91F9D2E9E2E8F2E29082B0251
:100D4000031DA42E28082A02031CA72EA82EAE2EAF
:100D50002808AA022908031CAB03AB0201300310C8
:100D6000A90CA80CFF3E031DAF2E0130AD02031DE0
:100D7000BA2EBB2E9E2E2B08A9002A08A800080018
:100D8000F701D72E77087407840075080318750AD1
:100D9000FF000A128A1100250A128A110A128A110A
:100DA000A0270A128A110130F6007608F7077708A3
:100DB0007407840075080318750A83120313FF0073
:100DC0000A128A1100250A128A11003A031DE92E1F
:100DD000EA2EC22E0800033083160317880089010B
:100DE000FF308316031386008601831203138601E6
:100DF000831603139F131F129F12831203131F08DE
:100E00003F3940389F00C3309F051F142130F30045
:100E1000F30B082F831203130C13831603130C1701
:100E20000B178B170800F701F801731C182F192FE7
:100E30001F2F7508F7070318F80A7608F80701301E
:100E40000310F50DF60DFF3E031D202F013003109A
:100E5000F40CF30CFF3E031D272F73087404031DCD
:100E6000322F332F152F7808F4007708F30008008D
:100E70004330F4008030F5000A128A11C0260A12AD
:100E80008A112730F4008030F5000A128A11C0263A
:100E90000A128A110B30F4008030F5000A128A1110
:100EA000C0260A128A110800831203130C1F592F3F
:100EB0005A2F662F1F0CF000700C0F39003A031DDB
:100EC000622F632F652F1E08DA000C1372088A0048
:100ED000710E8300FE0E7E0E0900831203138C1A1E
:100EE000722F732F7E2F981C762F772F7C2F18123E
:100EF00000008312031318161A087F2F0030080011
:100F0000F400F3013A3074020318872F882F902FD2
:100F100030307402031C8D2F8E2F902FF301F30AB3
:100F2000730C0800831203138C1E972F982F922F97
:100F3000981C9B2F9C2F9E2F181218161A08080019
:100F4000F30083160313981CA62FA72FA12F730855
:100F50008312031399000800831203138C1AB12F14
:0C0F6000B22FB42F0310B52F03140800AB
:08400000FF3FFF3FFF3FFF3FC0
:04400E00D520FF3F7B
:00000001FF
