:100000000A128A11FA2F00308A000408840A820733
:10001000003432342E3445346E34763469346134ED
:1000200072342034413473346334693469340034B5
:100F7E00F200720883120313930083160313141CDA
:100F8E00C92FCA2FC42F08008312031314109410F4
:100F9E00141194119416141283160313141394132C
:100FAE0087120716871108000A128A11CB270A1218
:100FBE008A1183160313860183120313061CE82F6E
:100FCE00E92FF02F01300A128A11BF270A128A1157
:100FDE00E32F02300A128A11BF270A128A11E32F59
:100FEE000A128A110028F001F10183010A128A11F6
:020FFE00DB2FE7
:08400000FF3FFF3FFF3FFF3FC0
:04400E00D520FF3F7B
:00000001FF
