:060000000A128A110E280D
:10000800FE00030E83120313A4000A08A5000A12B7
:100018008A113F2A0A128A11112883120313D9015F
:10002800DA01DB01DC01DD01DE01DF01E001E101D4
:10003800E201E301E401E50183010A128A1196292C
:1000480083120313BC003C0803192B282C284028D2
:10005800B71F2F28302840283409BE003509BF00B3
:100068003609C0003709C100BE0A0319BF0A0319BF
:10007800C00A0319C10A48283708C1003608C00059
:100088003508BF003408BE00370836043504340488
:10009800031D4F28502859280030B7000030B600FB
:1000A8000030B5000030B400DD289630BD00692866
:1000B8000130B8003808BD0701300310C10CC00C6E
:1000C800BF0CBE0CFF3E031D6128FE304105031D19
:1000D8006E286F285C288B280130B8003808BD07C7
:1000E8000130BE07003003180130BF070030031885
:1000F8000130C007003003180130C1070130031078
:10010800C10CC00CBF0CBE0CFF3E031D8328FF3082
:100118004105031D9028912870289D280130BD02B3
:100128000130B8000310BE0DBF0DC00DC10DB80BD6
:100138009628C01BA028A128A72802303D02031832
:10014800A628A72892283D18AA28AB28B328FF304C
:10015800BE05FF30BF057F30C005FF30C105031065
:10016800BD0C3D08B800B901BA01BB011830031035
:10017800B80DB90DBA0DBB0DFF3E031DBB283808DD
:10018800BE043908BF043A08C0043B08C1043C084F
:100198000319CF28D028D528B71FD328D428D52885
:1001A800C1174108B7004008B6003F08B5003E082F
:1001B800B4000800F80078080319E328E428F828B0
:1001C800F31FE728E828F8287009FA007109FB00EE
:1001D8007209FC007309FD00FA0A0319FB0A0319E6
:1001E800FC0A0319FD0A00297308FD007208FC00C7
:1001F8007108FB007008FA00730872047104700437
:10020800031D0729082911290030F3000030F200E6
:100218000030F1000030F00095299630F9002129CE
:100228000130F4007408F90701300310FD0CFC0CD0
:10023800FB0CFA0CFF3E031D1929FE307D05031D3A
:1002480026292729142943290130F4007408F907BD
:100258000130FA07003003180130FB07003003189B
:100268000130FC07003003180130FD07013003108E
:10027800FD0CFC0CFB0CFA0CFF3E031D3B29FF3068
:100288007D05031D48294929282955290130F902E6
:100298000130F4000310FA0DFB0DFC0DFD0DF40BFD
:1002A8004E29FC1B582959295F2902307902031865
:1002B8005E295F294A297918622963296B29FF3049
:1002C800FA05FF30FB057F30FC05FF30FD05031004
:1002D800F90C7908F400F501F601F701183003105C
:1002E800F40DF50DF60DF70DFF3E031D7329740887
:1002F800FA047508FB047608FC047708FD047808FE
:100308000319872988298D29F31F8B298C298D2981
:10031800FD177D08F3007C08F2007B08F1007A08DD
:10032800F00008000A128A11BD240A128A118312E9
:1003380003139F14E301E401033083120313D8006D
:100348008A30D7005530D600D60BA829D70BA82954
:10035800D80BA829831203139F18B329B429D529C8
:10036800E301E401831203136308D600D60DD60D0A
:100378001F085606C33956069F009F140130E3072D
:100388000318E40A0030E4076408803AFF0080306C
:100398007F02031DD12903306302031CD429D52908
:1003A800B629831203135C08A9005B08A8005A0841
:1003B800A7005908A6000A128A11BC220A128A113B
:1003C80083120313270883160313A500831203134C
:1003D800260883160313A400053083120313CA00EA
:1003E8000030CB000030C800C900FF30C600003024
:1003F800C7000030C400C500831603132508831204
:100408000313C30083160313240883120313C200C3
:100418000A128A1111240A128A118312031342083C
:1004280083160313A00083120313430883160313D0
:10043800A100A201A301230883120313B7008316A6
:100448000313220883120313B6008316031321082B
:1004580083120313B50083160313200883120313B2
:10046800B40000300A128A1124200A128A11A02925
:100478000A128A110E288C1D422A432A592A5C081E
:10048800F3005B08F2005A08F1005908F0000A125C
:100498008A1134230A128A1170080A128A11402517
:1004A8000A128A11831203138C110C1F5C2A5D2A0D
:1004B800B52A1F0CA000200C0F39013A031D652A2C
:1004C800662A7D2A1E08A000A1012008F000210844
:1004D800F1000530F2000030F3000A128A11AA2355
:1004E8000A128A11710883120313E2007008E100EE
:1004F800B42A1F0CA000200C0F39003A031D852ACE
:10050800862AA42A1E08A000A101A201A30123088B
:10051800F3002208F2002108F1002008F000003062
:100528000A128A11DE200A128A1173088312031331
:10053800DC007208DB007108DA007008D900B42A00
:100548001F0CA000200C0F39023A031DAC2AAD2A5B
:10055800B42A1E08A000A1012008DD002108DE0041
:100568000C1325088A00240E8300FE0E7E0E090057
:10057800031083120313280D290DAF002F08031D44
:10058800C62AC72AD02A0030A9000030A8000030A7
:10059800A7000030A600332B2608AA002708AB00C6
:1005A8002808AC002908AD001F300310AD0CAC0CB6
:1005B800AB0CAA0CFF3E031DD92A2A08AE00A817C7
:1005C800FF30A605FF30A705FF30A8050030A905B4
:1005D8009630AF02AF1FF12AF22A0C2B2F08803A6F
:1005E800973E0318F82AF92AFA2AC72A0130031075
:1005F800A90CA80CA70CA60CFF3E031DFB2A013072
:10060800AA002A08AF07031D0A2B0B2BFA2A232B53
:1006180020302F02031C112B122B1E2BC72A01304E
:10062800AA000310A60DA70DA80DA90DAA0B152B3E
:100638000130AF022F08031D222B232B132B2E086A
:100648000319272B282B332BA609A709A809A909C1
:10065800A60A0319A70A0319A80A0319A90A080070
:100668000310720D730DF9007908031D3C2B3D2B07
:10067800462B0030F3000030F2000030F10000306B
:10068800F000A92B7008F4007108F5007208F60054
:100698007308F7001F300310F70CF60CF50CF40C78
:1006A800FF3E031D4F2B7408F800F217FF30F005CA
:1006B800FF30F105FF30F2050030F3059630F902FE
:1006C800F91F672B682B822B7908803A973E03180D
:1006D8006E2B6F2B702B3D2B01300310F30CF20C9B
:1006E800F10CF00CFF3E031D712B0130F40074086F
:1006F800F907031D802B812B702B992B2030790251
:10070800031C872B882B942B3D2B0130F4000310FE
:10071800F00DF10DF20DF30DF40B8B2B0130F902F6
:100728007908031D982B992B892B780803199D2B81
:100738009E2BA92BF009F109F209F309F00A031914
:10074800F10A0319F20A0319F30A0800F601F11F66
:10075800AE2BAF2BB62BF009F109F00A0319F10AF9
:10076800F601F60AF31FB92BBA2BC32BF209F309CA
:10077800F20A0319F30A0130F4007408F606F701C7
:10078800F801700871040319CA2BCB2B022CF50150
:10079800F50AD92B01300310F00DF10DFF3E031DB2
:1007A800CF2B0130F4007408F507F11FDC2BDD2B8B
:1007B800CE2B01300310F70DF80DFF3E031DDE2B85
:1007C80071087302031DEA2B70087202031CED2BDB
:1007D800EE2BF52B7008F2027108031CF303F302E9
:1007E800771401300310F10CF00CFF3E031DF62BBB
:1007F8000130F502031D012C022CDD2B76080319AC
:10080800062C072C0C2CF709F809F70A0319F80A23
:100818007808F1007708F0000800831203134808ED
:100828004A02A8004908031C490A4B02A9004408C7
:100838004202A6004508031C450A4302A7000A1203
:100848008A11FB240A128A11831203132708AF00A6
:100858002608AE0044084602AC004508031C450AB9
:100868004702AD000A128A1177240A128A118312EC
:10087800031348082C07CC0049080318490A2D0718
:10088800CD004C08CE004D08CF00D001D101510851
:10089800B7005008B6004F08B5004E08B400003045
:1008A8000A128A1124200A128A11831203133708A4
:1008B800D5003608D4003508D3003408D2005508CE
:1008C800A9005408A8005308A7005208A6000A1255
:1008D8008A11BC220A128A11831203132708C30043
:1008E8002608C200080083120313B201B3012C08C2
:1008F8002D040319802C812CB82CB101B10A8F2C3E
:1009080001300310AC0DAD0DFF3E031D852C0130E9
:10091800B0003008B107AD1F922C932C842C013005
:100928000310B20DB30DFF3E031D942C2D082F02AA
:10093800031DA02C2C082E02031CA32CA42CAB2CCA
:100948002C08AE022D08031CAF03AF02321401308D
:100958000310AD0CAC0CFF3E031DAC2C0130B102F2
:10096800031DB72CB82C932C3308AD003208AC000B
:1009780008000330831603178800890183160313C0
:100988008601880183120313860188018B170B17D0
:100998008C11831603138C15851683120313A60175
:1009A800A701A80124300A128A1122250A128A11E5
:1009B8007030831603138F040F149F131F129F1296
:1009C800831203131F083F3940389F00C3309F0527
:1009D8001F14203083120313AA00AA0BF12C000065
:1009E800831203130C13831603130C1708008312C6
:1009F8000313AA01AB01261C022D032D092D28087B
:100A0800AA070318AB0A2908AB0701300310A80D81
:100A1800A90DFF3E031D0A2D01300310A70CA60CDB
:100A2800FF3E031D112D26082704031D1C2D1D2D17
:100A3800FF2C2B08A7002A08A6000800831203131E
:100A4800A90083160313871283120313291D2D2D62
:100A58002E2D342D280883160313940087153A2D5C
:100A6800260828048316031394008711831203139E
:100A78002908270494000800F00070088312031363
:040A880093000800CF
:08400000FF3FFF3FFF3FFF3FC0
:04400E00D520FF3F7B
:00000001FF
